:020000040000fa
:04025c001a13000071
:020000040000fa
:040210001a130000bd
:020000040000fa
:040274001a13000059
:020000040000fa
:040334001a13000098
:020000040000fa
:04035c001a13000070
:020000040000fa
:040270001a1300005d
:020000040000fa
:04022c001a130000a1
:020000040000fa
:04023c001a13000091
:020000040000fa
:0402bc001a13000011
:020000040000fa
:0402c0001a1300000d
:020000040000fa
:0402c4001a13000009
:020000040000fa
:0402c8001a13000005
:020000040000fa
:040280001a1300004d
:020000040000fa
:040284001a13000049
:020000040000fa
:04039c001a13000030
:020000040000fa
:040228001a130000a5
:020000040000fa
:040278001a13000055
:020000040000fa
:04029c001a13000031
:020000040000fa
:0402fc001a130000d1
:020000040000fa
:040300001a130000cc
:020000040000fa
:040260001a1300006d
:020000040000fa
:040264001a13000069
:020000040000fa
:04027c001a13000051
:020000040000fa
:040288001a13000045
:020000040000fa
:0402b0001a1300001d
:020000040000fa
:0402b4001a13000019
:020000040000fa
:0402b8001a13000015
:020000040000fa
:040238001a13000095
:020000040000fa
:0402e0001a130000ed
:020000040000fa
:0402e4001a130000e9
:020000040000fa
:0402e8001a130000e5
:020000040000fa
:0402f4001a130000d9
:020000040000fa
:0402f8001a130000d5
:020000040000fa
:040304001a130000c8
:020000040000fa
:040308001a130000c4
:020000040000fa
:04030c001a130000c0
:020000040000fa
:040310001a130000bc
:020000040000fa
:040314001a130000b8
:020000040000fa
:040318001a130000b4
:020000040000fa
:04031c001a130000b0
:020000040000fa
:040324001a130000a8
:020000040000fa
:040328001a130000a4
:020000040000fa
:040338001a13000094
:020000040000fa
:04033c001a13000090
:020000040000fa
:040340001a1300008c
:020000040000fa
:040344001a13000088
:020000040000fa
:04034c001a13000080
:020000040000fa
:040350001a1300007c
:020000040000fa
:040354001a13000078
:020000040000fa
:040358001a13000074
:020000040000fa
:040360001a1300006c
:020000040000fa
:040364001a13000068
:020000040000fa
:040368001a13000064
:020000040000fa
:040348001a13000084
:020000040000fa
:04026c001a13000061
:020000040000fa
:0402f0001a130000dd
:020000040000fa
:04037c001a13000050
:020000040000fa
:040218001a130000b5
:020000040000fa
:040230001a1300009d
:020000040000fa
:040240001a1300008d
:020000040000fa
:04028c001a13000041
:020000040000fa
:040290001a1300003d
:020000040000fa
:0402cc001a13000001
:020000040000fa
:0402d0001a130000fd
:020000040000fa
:0402d4001a130000f9
:020000040000fa
:0402d8001a130000f5
:020000040000fa
:040398001a13000034
:020000040000fa
:04020c001a130000c1
:020000040000fa
:0402dc001a130000f1
:020000040000fa
:040320001a130000ac
:020000040000fa
:040208001a130000c5
:020000040000fa
:04021c001a130000b1
:020000040000fa
:040220001a130000ad
:020000040000fa
:040224001a130000a9
:020000040000fa
:040268001a13000065
:020000040000fa
:0402ec001a130000e1
:020000040000fa
:040378001a13000054
:020000040000fa
:04024c001a13000081
:020000040000fa
:040250001a1300007d
:020000040000fa
:0402a8001a13000025
:020000040000fa
:0402ac001a13000021
:020000040000fa
:040390001a1300003c
:020000040000fa
:040394001a13000038
:020000040000fa
:040214001a130000b9
:020000040000fa
:040234001a13000099
:020000040000fa
:040244001a13000089
:020000040000fa
:040248001a13000085
:020000040000fa
:040294001a13000039
:020000040000fa
:040298001a13000035
:020000040000fa
:04032c001a130000a0
:020000040000fa
:040254001a13000079
:020000040000fa
:040258001a13000075
:020000040000fa
:040330001a1300009c
:020000040000fa
:0402a0001a1300002d
:020000040000fa
:0402a4001a13000029
:020000040000fa
:04036c001a13000060
:020000040000fa
:040370001a1300005c
:020000040000fa
:040374001a13000058
:020000040000fa
:040384001a13000048
:020000040000fa
:040388001a13000044
:020000040000fa
:04038c001a13000040
:020000040000fa
:040380001a1300004c
:020000040000fa
:080000001011040000000000d3
:020000040000fa
:102220000f8020000eff27000e0188000000000034
:10223000000020000000e000020032000001200049
:102240002002880014000700770007000000e0006b
:1022500003003a00000020000100200002003700c7
:102260000000200001002000810f700001003200fa
:1022700014000700000020000000e000020032000f
:1022800000000200000000009012020000000000a8
:102290000040da000000fe004440a90020002000b9
:1022a0000000e000030032001000200090018800d0
:1022b0004440a800000006008a1f78008b1f7800a9
:1022c00000000600a1028800800478000000eb00f6
:1022d0001f003700e284440054a0b4009905ba00fe
:1022e000e284440054a0b4009906ba00e284440099
:1022f00054a0b4000006eb00476fde00fd07b200fb
:10230000ae018800636ce10003003a00eaff0700b9
:102310000000eb000e003700606ce10008003a009e
:10232000004deb000a05e800020039003420ec0003
:102330000af0a0008b05e900f9ff3e000400370019
:102340006168e100010032000086eb000b0007002d
:1023500019c7ba001905ba000e04e00003003a00dc
:102360000a00e000dbff3a0000000600fe07b200b2
:10237000ae0288008a047800f5ff37000cd0a30075
:10238000e20f4d001c00390089027800354dba007b
:102390000a05e800020039003420ec000af0a00031
:1023a0008b05e9000f003200254dba000a05e80050
:1023b000020039003420ec000af0a0008b05e9008f
:1023c000080032000c00e0000600320015cdba0013
:1023d0000a05e800020039003420ec000af0a000f1
:1023e0008b05e9008984e80054a0b4000b00e000ec
:1023f000e2ff3a00000006009902ba00055d78008d
:102400008b05e900f7ff3200c82ade00055d780081
:102410008b05e900f3ff32000c00e000f1ff320011
:0c24200019ddba00eeff370000000500d7
:020000040000fa
:1020000010110400000000001a130400000000007a
:102010001a130400000000001a130400000000005e
:102020001a130400000000001a130400000000004e
:102030001a130400000000001a130400000000003e
:102040001a13040000000000e41204000000000065
:102050001a130400000000001a130400000000001e
:102060001a130400000000001a130400000000000e
:102070001a130400000000001a13040000000000fe
:102080001a130400000000001a13040000000000ee
:102090001a130400000000001a13040000000000de
:1020a0001a130400000000001a13040000000000ce
:1020b0001a130400000000001a13040000000000be
:1020c0001a130400000000001a13040000000000ae
:1020d0001a130400000000001a130400000000009e
:1020e0001a130400000000001a130400000000008e
:1020f0001a130400000000001a130400000000007e
:102100001a130400000000001a130400000000006d
:102110001a130400000000001a130400000000005d
:102120001a130400000000001a130400000000004d
:102130001a130400000000001a130400000000003d
:102140001a130400000000001a130400000000002d
:102150001a130400000000001a130400000000001d
:102160001a130400000000001a130400000000000d
:102170001a130400000000001a13040000000000fd
:102180001a130400000000001a13040000000000ed
:102190001a130400000000001a13040000000000dd
:1021a0001a130400000000001a13040000000000cd
:1021b0001a130400000000001a13040000000000bd
:1021c0001a130400000000001a13040000000000ad
:1021d0001a130400000000001a130400000000009d
:1021e0001a130400000000001a130400000000008d
:1021f0001a130400000000001a130400000000007d
:102200001a130400000000001a130400000000006c
:102210001a130400000000001a130400000000005c
:020000040000fa
:1000080004100000081000000c1000001010000080
:10001800141000000c1100000c1100000c1100005d
:10002800181000001c100000201000002410000010
:100038000c110000281000002c10000030100000e7
:1000480034100000381000003c1000004010000080
:1000580044100000481000000c1100000c110000b2
:100068004c10000050100000541000005810000000
:100078005c1000000c11000060100000641000000b
:100088000c110000681000006c10000070100000d7
:1000980074100000781000007c1000008010000030
:1000a80084100000881000000c1100000c110000e2
:1000b8000c1100008c10000090100000941000003b
:1000c800981000009c100000a0100000a410000070
:1000d800a8100000ac1000000c1100000c1100006a
:1000e8000c110000b0100000b41000000c1100004a
:1000f8000c110000b8100000bc1000000c1100002a
:100108000c1100000c1100000c1100000c11000073
:100118000c1100000c110000c01000000c110000b0
:100128000c110000c4100000c8100000cc10000022
:100138000c1100000c1100000c1100000c11000043
:10014800d01000000c1100000c1100000c11000070
:100158000c110000d41000000c1100000c1100005c
:100168000c110000d8100000dc100000e0100000a6
:10017800e4100000e8100000ec100000f01000008f
:10018800f4100000f8100000fc100000001100003e
:1001980004110000081100000c1100000c110000ef
:1001a8000c1100000c1100000c1100000c110000d3
:1001b8000c1100000c1100000c1100000c110000c3
:1001c8000c1100000c1100000c1100000c110000b3
:1001d8000c1100000c1100000c1100000c110000a3
:1001e8000c1100000c1100000c1100000c11000093
:0801f8000c1100000c110000c5
:020000040000fa
:10242c000000fa0000102000203a8800d8a2a80072
:10243c00d882a800e882a800e8a2a800c9e2a800f7
:10244c00e862a800d902a800d962a800d922a80085
:10245c00d942a800d802a800d822a800d842a800c7
:10246c00d862a800c8a2a800c882a800c862a800a8
:10247c00c842a800c822a800c802a800f003200087
:10248c0010278800e424ef00e624ef00ea24ef0094
:10249c00ec24ef00000e2000001988002223ef002e
:1024ac0000c420002019880050002000401988002a
:1024bc0021e3a800d8e2a900dce2a900e802a90007
:1024cc00ec02a900e822a900ec22a900d1e2a800a4
:1024dc00d182a800c982a8000080fa000000060082
:1024ec000200fa00000f78009e0078004119880065
:1024fc002023a8000000000000198000610060008b
:10250c000000e000fcff3200001880000080fa00a0
:10251c00000006000000fa00c1ff070000032000c5
:10252c002008880010a12700100888000021ef0067
:10253c008460a9009460a80005e1a800ec02a80042
:10254c0091168000000021000080600000f0a700c0
:10255c000000ea000000e9004f00de0000407800b7
:10256c000080fb00610060004700dd00e116800088
:10257c000170a10001007000e01688005116800067
:10258c00000021000080600000f0a7000000ea00bd
:10259c000000e9004f00de00004078000080fb00e6
:1025ac006100600000004000611780000110a10074
:0c25bc000100700060178800e1ff37008c
:020000040000fa
:1025c800809fbe003200f8003400f80010002000a0
:1025d800a001880010002000900188000000fa0087
:1025e8008460a900601780006100600000f0a70007
:1025f8000000ea000000e9004f00de00004078001b
:102608000080fb0061006000611780000100a100ec
:1026180001007000601788000080fa003400f9009b
:0c2628003200f9004f00be000040060028
:020000040000fa
:082634000040da000000fe0086
:00000001FF
