:020000040000fa
:04025c005a2600001e
:020000040000fa
:040210005a2600006a
:020000040000fa
:040274005a26000006
:020000040000fa
:040334005a26000045
:020000040000fa
:04035c005a2600001d
:020000040000fa
:040270005a2600000a
:020000040000fa
:04022c005a2600004e
:020000040000fa
:04023c005a2600003e
:020000040000fa
:0402bc005a260000be
:020000040000fa
:0402c0005a260000ba
:020000040000fa
:0402c4005a260000b6
:020000040000fa
:0402c8005a260000b2
:020000040000fa
:040280005a260000fa
:020000040000fa
:040284005a260000f6
:020000040000fa
:04039c005a260000dd
:020000040000fa
:040228005a26000052
:020000040000fa
:040278005a26000002
:020000040000fa
:04029c005a260000de
:020000040000fa
:0402fc005a2600007e
:020000040000fa
:040300005a26000079
:020000040000fa
:040260005a2600001a
:020000040000fa
:040264005a26000016
:020000040000fa
:04027c005a260000fe
:020000040000fa
:040288005a260000f2
:020000040000fa
:0402b0005a260000ca
:020000040000fa
:0402b4005a260000c6
:020000040000fa
:0402b8005a260000c2
:020000040000fa
:040238005a26000042
:020000040000fa
:0402e0005a2600009a
:020000040000fa
:0402e4005a26000096
:020000040000fa
:0402e8005a26000092
:020000040000fa
:0402f4005a26000086
:020000040000fa
:0402f8005a26000082
:020000040000fa
:040304005a26000075
:020000040000fa
:040308005a26000071
:020000040000fa
:04030c005a2600006d
:020000040000fa
:040310005a26000069
:020000040000fa
:040314005a26000065
:020000040000fa
:040318005a26000061
:020000040000fa
:04031c005a2600005d
:020000040000fa
:040324005a26000055
:020000040000fa
:040328005a26000051
:020000040000fa
:040338005a26000041
:020000040000fa
:04033c005a2600003d
:020000040000fa
:040340005a26000039
:020000040000fa
:040344005a26000035
:020000040000fa
:04034c005a2600002d
:020000040000fa
:040350005a26000029
:020000040000fa
:040354005a26000025
:020000040000fa
:040358005a26000021
:020000040000fa
:040360005a26000019
:020000040000fa
:040364005a26000015
:020000040000fa
:040368005a26000011
:020000040000fa
:040348005a26000031
:020000040000fa
:04026c005a2600000e
:020000040000fa
:0402f0005a2600008a
:020000040000fa
:04037c005a260000fd
:020000040000fa
:040218005a26000062
:020000040000fa
:040230005a2600004a
:020000040000fa
:040240005a2600003a
:020000040000fa
:04028c005a260000ee
:020000040000fa
:040290005a260000ea
:020000040000fa
:0402cc005a260000ae
:020000040000fa
:0402d0005a260000aa
:020000040000fa
:0402d4005a260000a6
:020000040000fa
:0402d8005a260000a2
:020000040000fa
:040398005a260000e1
:020000040000fa
:04020c005a2600006e
:020000040000fa
:0402dc005a2600009e
:020000040000fa
:040320005a26000059
:020000040000fa
:040208005a26000072
:020000040000fa
:04021c005a2600005e
:020000040000fa
:040220005a2600005a
:020000040000fa
:040224005a26000056
:020000040000fa
:040268005a26000012
:020000040000fa
:0402ec005a2600008e
:020000040000fa
:040378005a26000001
:020000040000fa
:04024c005a2600002e
:020000040000fa
:040250005a2600002a
:020000040000fa
:0402a8005a260000d2
:020000040000fa
:0402ac005a260000ce
:020000040000fa
:040390005a260000e9
:020000040000fa
:040394005a260000e5
:020000040000fa
:040214005a26000066
:020000040000fa
:040234005a26000046
:020000040000fa
:040244005a26000036
:020000040000fa
:040248005a26000032
:020000040000fa
:040294005a260000e6
:020000040000fa
:040298005a260000e2
:020000040000fa
:04032c005a2600004d
:020000040000fa
:040254005a26000026
:020000040000fa
:040258005a26000022
:020000040000fa
:040330005a26000049
:020000040000fa
:0402a0005a260000da
:020000040000fa
:0402a4005a260000d6
:020000040000fa
:04036c005a2600000d
:020000040000fa
:040370005a26000009
:020000040000fa
:040374005a26000005
:020000040000fa
:040384005a260000f5
:020000040000fa
:040388005a260000f1
:020000040000fa
:04038c005a260000ed
:020000040000fa
:040380005a260000f9
:020000040000fa
:080000001011040000000000d3
:020000040000fa
:102220004f0e21000eff27000e0188000000000065
:10223000000020000000e000020032000001200049
:102240002002880014000700b00007000000e00032
:1022500003003a00804622000100200002003700ff
:102260000000200001002000810f700001003200fa
:1022700014000700000020000000e000020032000f
:102280000000020000000000c62302000000000061
:102290000040da000000fe004440a900e0002000f9
:1022a0000000e000030032000020200090018800c0
:1022b0004440a800000006008a1f78008b1f7800a9
:1022c00000000600a1028800800478000000eb00f6
:1022d0001f003700e284440054a0b4009905ba00fe
:1022e000e284440054a0b4009906ba00e284440099
:1022f00054a0b4000006eb00476fde00fd07b200fb
:10230000ae018800636ce10003003a00eaff0700b9
:102310000000eb000e003700606ce10008003a009e
:10232000004deb000a05e800020039003420ec0003
:102330000af0a0008b05e900f9ff3e000400370019
:102340006168e100010032000086eb000b0007002d
:1023500019c7ba001905ba000e04e00003003a00dc
:102360000a00e000dbff3a0000000600fe07b200b2
:10237000ae0288008a047800f5ff37000cd0a30075
:10238000e20f4d001c00390089027800354dba007b
:102390000a05e800020039003420ec000af0a00031
:1023a0008b05e9000f003200254dba000a05e80050
:1023b000020039003420ec000af0a0008b05e9008f
:1023c000080032000c00e0000600320015cdba0013
:1023d0000a05e800020039003420ec000af0a000f1
:1023e0008b05e9008984e80054a0b4000b00e000ec
:1023f000e2ff3a00000006009902ba00055d78008d
:102400008b05e900f7ff3200c82ade00055d780081
:102410008b05e900f3ff32000c00e000f1ff320011
:1024200019ddba00eeff370088120400000000003a
:10243000b2140400000000000000040000000000ce
:102440000a00fa0011002000b1bf9f00c0bf9f002a
:102450006a805700ef0507004fb897000080fa0028
:10246000000006000a00fa0051002000b1bf9f00e2
:10247000c0bf9f006a805700e80507005fb897005b
:102480000080fa0000000600889fbe0080047800eb
:10249000108780000000e00004003a000e000700f2
:1024a0000084eb000000e000080035001887800081
:1024b0000900e000050032000900440006000700a2
:1024c0000000e00001003d000084eb0008007800ff
:1024d0004f04be0000000600800078000100e0000c
:1024e00003003a000000200010878800000005006b
:1024f0000080eb0002002000828f500002003e00ae
:10250000118788000000eb000000060000000500b5
:10251000889fbe00000478000100780082047800e3
:102520008801780009017800110020000e000700e2
:10253000890f5000010032000004eb000800780011
:102540004f04be00000006000000fa00e8815700ba
:102550004fb99700e10321008028210057010700af
:102560000080fa0000000600889fbe008a9fbe001f
:102570008c9fbe008e1f7800000678000104780052
:1025800002007800830478000881b900020778000f
:102590000200e000420032000800e000410032008a
:1025a00082057800c900900069009000808f50007b
:1025b0000400390009007800500007000000e00026
:1025c0002900350000402000190060000a00320098
:1025d0000b017800a10020000c00780036000700f5
:1025e000800678000d00e00006003200610516004c
:1025f0000a854600040037000b0578008006eb00d2
:10260000010037000b05780049009000e9009000b8
:10261000808050008a8f5000020031000105780050
:102620008006eb000a0178008c0078002c0007007f
:102630008a855500490090000a004000c0049800b7
:102640000d00e0000400320009007800d50007000a
:102650000000e00004003a000b00e000020032003d
:102660000a064600cfff37000080200019006000f6
:102670000200320009007800ca00070000c02000f4
:10268000190060000200320049009000e004980048
:102690008b055700110009008885d800010037001c
:1026a0000000eb004f0778004f06be004f05be004c
:1026b0004f04be000000060003003700b0cf10003a
:1026c000050032000201e900800178000200e0000c
:1026d000faff3a0000000500030078000000060041
:1026e0008001780002003700b15978000201e9004a
:1026f0000200e000fcff3a0000000600889fbe00d8
:102700008a1f780000047800c800900068019000db
:102710000000eb00828f50003c0039001800780068
:102720002200290002016000e20f51000700320080
:10273000012024000000e00001003d0001202000f5
:10274000008c70000080eb00300037000200260093
:1027500002006000820f500009003a00380090002b
:10276000808f500006003900080078008d000700b7
:10277000800078000080eb000100e00023003a00b8
:102780001805780000c020000000650018003a001d
:10279000a80490006002200008004000808f5400d0
:1027a00013003a0000202000ed02070020049800ea
:1027b0000000e00005003a00290498004904980050
:1027c0008904e80039049800080037000a60a00076
:1027d0000a0c78004004980001202000808040000e
:1027e00031049800400c9800500c98000c00070031
:1027f0002800900050049800380090006004980071
:1028000000002600180c70000000eb004f05780057
:102810004f04be0000000600204b21009b00370043
:10282000881f7800e80d21001804e00003003a003a
:10283000f9ff070020c0b300004c78004f04780077
:1028400000000600889fbe000004780008007800a1
:102850005400070080047800000420001800600085
:102860000200320028009000580207000000eb0030
:1028700020049800384090000004e0000500350076
:102880000000fb00eefe07000000e0000100320047
:102890008084eb00181090000000e0000800320077
:1028a000f0fe07000000e000010032008084eb0031
:1028b00018109000450207000000eb00101498006b
:1028c0000008200018006000150032000001eb0035
:1028d0006000b800e30821000202d00063027a0021
:1028e000880f520005003a00000040008180480037
:1028f000008041000008eb00060037006100400046
:10290000e08048000201e800e80f5000e08f580026
:10291000f0ff3a00080078002c0207000e00370094
:10292000000c780000c0eb003044980060022000ea
:1029300008004000200498004004980050049800cb
:10294000400c980060049800500c980070049800a7
:1029500076004400000c9800090078004f04be0087
:1029600000000600881f78000004eb006140b800fa
:10297000e2ff2f00f3ff2f00cc040700c209210063
:10298000620078000000e00001003200adff0700a7
:102990000804e800e80f5400f4ff3a004f04780000
:1029a00000000600889fbe00000478000800e000d8
:1029b0000e003a008004eb008800d000e0082100ff
:1029c000610078000000e00004003200f5ff07001d
:1029d0000000e00001003d008084eb000804e800f6
:1029e000e80f5400f4ff3a002500370000002200f1
:1029f000180060008004eb0021003200a804900061
:102a00000f00370009015100384090000000fb0022
:102a100089007800ea0607000000e00007003c009b
:102a2000280090004004980060049800500c980022
:102a30001890a0008084eb001100370080844400cf
:102a400048019000828f5400eeff3900280090006a
:102a5000400498009800780002c0200002816000c5
:102a600001003a003800900001e8a30002003200a3
:102a70006004980001003700500c98008004eb00bf
:102a8000090078004f04be0000000600010020008d
:102a90000100e00008003200010080000100e000b9
:102aa000050032008100e900010088008100d000ab
:102ab0000200800000b17800000006006200fa0009
:102ac000889fbe008a1f7800000578008104780086
:102ad000020478008300780080f92f000f00400086
:102ae0004a0407009a979f00a9979f000000eb00f7
:102af000b09f9f001885fb008a04fb000a05ea00ce
:102b00004f55de0050022000808f54000d0032002f
:102b1000e10f55000b003a000a01780088007800a8
:102b20002f9097009f91970003000100a0979f00ae
:102b30000000e0008e0032003f9897000000e8009f
:102b4000b09f9f000a04440050022000808f540070
:102b5000040032000900e000e6ff3a003f989700c9
:102b6000840037000000eb00909f9f00809f9f0033
:102b7000f0979f00e0979f00d0979f00c0979f001d
:102b800007003700410d2100010050000000400007
:102b9000810c210061007800df989700010070002f
:102ba000d09f9f0088047800090478003845780099
:102bb0008a00fb00400d2100130207000000e00026
:102bc000f0ff3a00a1c2b300814f55000e003a0059
:102bd000cf8897000180e900c08f9f001000780027
:102be000c09f9f000000e00005003d000000ea00db
:102bf000c09f9f005f9897000020a000d09f9f007b
:102c00000904e8000f003700c09f9f000000eb00a0
:102c100005003700f2ff2700820f5000020032004b
:102c20006a01b90002804000090478008804780035
:102c3000b900fb000103b100e98f5000f5ff360039
:102c4000c09f9f00e0c2b300984f10000200320006
:102c50000080eb0019003700a0c2b300d84f10006d
:102c600007003a00cf8897000180e900c08f9f00dd
:102c700010007800a09f9f000804e80010003700b3
:102c80000000eb00a09f9f0088007800050037003f
:102c9000f3ff2700830f5000020032006a02b900e0
:102ca0000400410001047800880078003101fb0035
:102cb0000203b100e90f5100f5ff3600a09f9f000d
:102cc000984478008900fb00000c2100ce01070029
:102cd0000000e000020032000804e80001003700b4
:102ce0008044eb00c97f9f0080c6b30080cf5400b2
:102cf00004003a0098cf14000a003a0066405000e1
:102d000006003700c0c6b30080cf540005003a006b
:102d100098cf140003003a0065404000c07f9f0038
:102d20000804e8001801fb00e3fb2f008f8141003d
:102d300081f92f008f804000a0f92f000f00400084
:102d4000100007000000e00009003a00e1fb2f003e
:102d50008f804000a0f92f000f004000ef02070015
:102d60000000e000020035000804e80061ff3700c1
:102d70000080eb004f0578004f04be000080fa0091
:102d800000000600889fbe008a9fbe00e4c6b30014
:102d9000844f5100be00320010003c006b425200d4
:102da000844f51001800320005003c0054c2b300ab
:102db000844f5100f600320084c5b3000f00370085
:102dc00044c6b300844f51001400320065424200f3
:102dd000844f5100f1003a001000370004c7b300df
:102de000844f5100dd00320056003500654242003c
:102df000844f51005300320063424200844f51001f
:102e0000e6003a004f0037001181e900820878009f
:102e1000f000900012417800de0037002062900040
:102e2000c5c6b300854f520007003a0091027800f2
:102e300064825200840878001402be004fabde00aa
:102e4000860378001400370015c7b300854f520081
:102e500003003a00110478006802540005003700ae
:102e6000a5c6b300854f520006003a0091047800d1
:102e700068825400840878005403be004402be00f7
:102e8000050037001182e9008408780014027800f8
:102e9000cfa2de00612bb9000498be000690be00f0
:102ea000a060900088c6b30088cf50000d003200ab
:102eb00028c6b30088cf500004003a000402fb008b
:102ec000cfa2de00612bb9000800370048c7b3006d
:102ed00088cf5000030032006644440088cf500081
:102ee00004003a00cfa2de00612bb9000498be00b6
:102ef0000690be003002be002003be00f00090002d
:102f0000e00f5200e08f5a00e00f5b00e08f5b00a3
:102f100002003d00d4c2b300080037000012900048
:102f20000418a30002003200b4c2b300030037004b
:102f30000408a3005100320004c2b30084f17800f9
:102f40004c00370020629000c5c6b300854f520088
:102f500008003a00110578006402550084087800e2
:102f60001404be006055b8000802be000a03be008b
:102f70001400370015c7b300854f520003003a0014
:102f8000910478006882540005003700a5c6b3009c
:102f9000854f520006003a0011057800680255007e
:102fa000840878005403be004402be0005003700c8
:102fb0001182e90084087800140278008002eb0096
:102fc0006033b8000498be000690be00a060900078
:102fd00088c6b30088cf50000d00320028c6b30069
:102fe00088cf500004003a000482fb008002eb000e
:102ff0006033b8000800370048c7b30088cf5000de
:10300000030032006644440088cf500004003a00b8
:103010008002eb006033b8000498be000690be004a
:10302000801090000138a300140032003002be006e
:103030002003be00e00f5200e08f5a00e00f5b005b
:10304000e08f5b000d00320081c7b300814f51005b
:103050000300320081c5b300814f510007003a00e0
:10306000f000900004c3b30084f178008100e80010
:1030700082f178008100e80071009800f000900073
:103080008181410063009800824078003e00370053
:10309000a0619000c4c6b3001181e90084cf510043
:1030a000220032000a003c006442520084cf5100ea
:1030b0002500320004c2e80084cf51001300320022
:1030c0006842520084cf51001e003a000a003700c7
:1030d00044c7b30084cf51001b0032006642420057
:1030e00084cf5100180032006942520084cf510051
:1030f00014003a000500370082087800920078003a
:1031000040589000804878002c00370082087800f2
:1031100092007800600a9000cfa2de00612bb90017
:103120008498be008690be00240037008208780094
:103130009200780060099000cf91de008288be0086
:103140001e0037001181e9008208780092007800a3
:103150006008900080087800180037001181e900ad
:103160008208780012027800cfa2de00612bb9003d
:103170000498be000690be00f000900081814100de
:103180006300980081c7b300b50007000b0037004b
:10319000f000900082f1780006003700f000900007
:1031a000818141000204e00001003a0052c2b300f4
:1031b000824978008100e800710098000000eb006f
:1031c0004f05be004f04be00000006000000e000f6
:1031d0002f003200c0017800e38f51002c00360030
:1031e0000308a3002a003a00e18680000100e00005
:1031f00002003200810f50000400310011009800dd
:10320000e0868800160037008200780011019000e7
:103210000200e00002003200800f5100faff390086
:103220001102780084824000850f50001800390098
:10323000808f520003003a008308420001007800aa
:10324000070037000200e000030032008301400065
:10325000830f51000e003900120098009000980072
:10326000900090000100e0000900320010014000d1
:10327000828f500006003a00a20d21000009eb00e9
:103280001001780011084100910090001100980091
:1032900000000600889fbe0000047800d1868000f0
:1032a0000100e00002003200010078000d0037004c
:1032b000e1868000c00d210004003700910f54000a
:1032c000250036000180e800910090000100e00038
:1032d000faff3a0010003700920f54001e0036002b
:1032e0000280e800100178000200e000faff3a00d6
:1032f00011017800e1868000c00d21000400370034
:10330000910f5400140036000180e80091009000f5
:10331000828f5000faff3a0009878000888f54009e
:10332000010031008804780009007800420007009d
:103330000000e00004003a00888f540005003200cd
:103340008904d100f5ff3700091878009fff0700b6
:10335000d2ff37000000eb004f04be000000060063
:10336000881f7800630440000800a1008000eb0083
:10337000800f540021003600e30f540001003e008e
:103380004800200008007800c2ff07008000eb0022
:103390000000e000190032009000780091017800f0
:1033a00064815100880f5100030031001101900029
:1033b0000208780007003700088140000208780002
:1033c0009101900013019800100178001109140078
:1033d00088087800100178000000eb000200e0008f
:1033e00004003200920190000300e000010032006e
:1033f0000280e800d08688008180e8000100780023
:103400004f04780000000600020037000304e000cb
:10341000060032000001780002007800b041780018
:1034200081cf5100f9ff3a00010037000001eb00a5
:103430000200780000000600800078000000eb0029
:103440000100e00005003400010078000efc0700d8
:10345000e10f400001003a000000eb000000060010
:10346000fc874700889fbe008a9fbe008c9fbe00dd
:103470008e1f78000006780080c5b30080cf500012
:103480000a0032007740400080cf50000a0032002e
:103490006940400080cf50000b003200f00a21004c
:1034a00080bf9f00ae0020000a003700e209210023
:1034b00082bf9f0006003700f30a210083bf9f00f0
:1034c0008e00200003003700f40a210084bf9f0013
:1034d0000e0120003c02be002c03be000605be000b
:1034e0000404be0040c6b30080cf50000300320089
:1034f0006540400080cf50000b003a00e00f5200c2
:10350000e08f5a00e00f5b00e08f5b0006003d009b
:103510006000b8006011b8000404500085845800b1
:103520000605590087855900e80f5700040032004e
:1035300040002000f00f570038003a00010037002b
:1035400030002000e00f5400e08f5c00e00f5d00d1
:10355000e08f5d0004003a00dc0890008d0120003f
:103560000100e000060032008e00e9008880600063
:103570008fba9700e5c07800f1ef9f007d01200031
:10358000800078008100e900050033008b05d10040
:103590000a85d3008984d3000884d300f9ff37005b
:1035a000089ebe000a96be00120037008d06e90094
:1035b0008e00e900848060000fb99700e2c17800b6
:1035c00082fd2f000f01410003f17e008000780092
:1035d0008100e900050033008783d1000683d30012
:1035e0008582d3000482d300f9ff3700049ebe0019
:1035f0000696be003c02be002c03be00e00f520047
:10360000e08f5a00e00f5b00e08f5b008b0034001e
:103610000d00e000e5ff3c00880037002c609000c2
:1036200081c6b300814f50000b00320006003c0001
:103630000004e00008003200e6c05000814f500056
:103640004e003a0004003700c1c6b300814f50005d
:103650004a003a00210037000800e00004003a0068
:103660005c0890008d0120000000e00006003200a0
:10367000110009000e84d8000fb99700e2c078004d
:10368000f1ef9f007d012000110009000e84d80099
:103690000a003700110009000e04d8008d06e90069
:1036a0000e81b900020454008fb8970061417c007c
:1036b00081fd2f008f80400082f07e0000047800a2
:1036c0000800e000020032000d00e000f1ff3c00c5
:1036d000cfc4de00614db90025003700e00f540073
:1036e000e08f5c0004003a005c0890008d0120002f
:1036f0000000e000070032006171b9000800be0060
:10370000670107008fb99700e3417800f3ef9f004e
:103710007d0120006171b9000800be005001070062
:103720000b0037006171b9000800be003d010700c1
:103730008d06e90000f1b900020454000fba9700a9
:10374000e4427c0084fd2f000f02420005f27e005f
:103750000004be00e00f5000e08f5800020032006d
:103760000d00e000efff3c004fcdde008a05780041
:10377000089ebe000a96be0030003700e00f5400dd
:10378000e08f5c00e00f5d00e08f5d0004003a0018
:103790005c0890008d0120000000e000090032006c
:1037a0006172b900612bb9000800be000a01be00b9
:1037b000e40107000fba970064427800f4ef9f001d
:1037c0007d0120006172b900612bb9000800be00c4
:1037d0000a01be00d40107000d0037006172b90074
:1037e000612bb9000800be000a01be00d901070024
:1037f0008d06e90000f2b900040454008fba970066
:1038000065427c0085fd2f008f82420084f27e009d
:10381000009ebe000296be003c04be002c05be0009
:10382000e00f5400e08f5c00e00f5d00e08f5d0072
:10383000020034000d00e000e8ff3c00e80f5700f4
:1038400010003a000c1090000038a3000d00320068
:10385000f78f560006003e0085fd2f008f82420044
:10386000e5c07e0000c3b30080cf500005003200e9
:103870008d06e90002c3b30081fd2f008f80400058
:1038800082f07e0078811600120e98006c00900085
:1038900083fd2f008f8141008d80410090fb070048
:1038a0001c089000dc089000810f500006003d00cd
:1038b00000805000000e98000c1090000040a10005
:1038c000001698000f0037000100e0000d003d00d9
:1038d0008c109000f4806000f08f500009003a00d6
:1038e0007c099000fc009000810051000c099000c0
:1038f00082805000008050004240a9000100340046
:10390000000e98004f0778004f06be004f05be001e
:103910004f04be00cf01b100000006000400fa0011
:10392000889fbe008a9fbe008c1f7800000478002c
:1039300001067800f80d9000780090008085550011
:103940000808900080855500180890008085550073
:103950002808900080855500380890008085550023
:1039600048089000808555000002220090bf9f000b
:1039700000032300a0bf9f00081090000028a300b0
:1039800015003a000b00e000130034000b0578002e
:103990008a047800e20f550001003600290020005b
:1039a000c801900009017800ee805700580090008f
:1039b00003000100500498000000e0008c00320079
:1039c0006808900009004000600c98000905550047
:1039d0004240a900eeff3c00780190000200e000a8
:1039e0000c003400c80190008c0078005800900052
:1039f00003000100500498008080eb000000e0000c
:103a00007c003200e80890007800900000804000c0
:103a1000600c9800880c90000900e0001100340050
:103a200009057800e28f5400010036002a002000ca
:103a3000c80190000a017800ec80570058009000ff
:103a400003000100500498000000e000680032000c
:103a5000680890000a004000600c98008a845400b6
:103a6000edff3700180990000200e0000c00340060
:103a7000c8019000e8009000580090000300010089
:103a8000500498008080eb000000e00059003200f4
:103a9000e80890001808900000804000600c980032
:103aa000a80c90000900e00011003400090578001e
:103ab000e28f5400010036002a002000c801900067
:103ac0000a017800ec8057005800900003000100c4
:103ad000500498000000e0004500320068089000a3
:103ae0000a004000600c98008a845400edff370003
:103af000380990000200e0000e003400e800900059
:103b00001808900080804000c80190005800900084
:103b100003000100500498008080eb000000e000ea
:103b200034003200e808900038089000008040001f
:103b3000600c9800c80c90000900e00011003400ef
:103b400009057800e28f5400010036002a002000a9
:103b5000c80190000a017800ec80570058009000de
:103b600003000100500498000000e0002000320033
:103b7000680890000a004000600c98008a84540095
:103b8000edff3700081090008000eb000028a30034
:103b9000180032000b00e000160034008b0478009f
:103ba00009057800e28f5400010036002a00200049
:103bb000c80190000a017800ee805700580090007c
:103bc00003000100500498000000e00008003200eb
:103bd000680890000a004000600c98008a84540035
:103be0004240a900eeff3c008000eb0001003700de
:103bf0008080eb00010078004f0678004f05be0082
:103c00004f04be000080fa000000060001087800a2
:103c10000000060000c0da000000060000c0da0064
:103c200000000600839f68000100e00002003d00e4
:103c300060001000e08018000300e00002003d007a
:103c400060011100e0811900050007004f00e0004d
:103c500002003b0060001000e08018000000060039
:103c60006022b800060220000000d0008180d2004f
:103c70000482d2008582d2000000a000020252001d
:103c800083825a00030031000202420083824a000c
:103c90000000a1000603e900f3ff3a00000006005f
:103ca000efff07000400be0000000600020ab90092
:103cb000001bb9000200b8008100420081004300ef
:103cc00000000600889fbe008a9fbe0030044200ac
:103cd000b0844a0030054b0090854b006000b10075
:103ce0000898be000a90be000440e10005c8e1004b
:103cf00006d0e10007d8e100020031006800400072
:103d00001008e8004f05be004f04be00000006008a
:103d1000889fbe008a9fbe003004be002005be0002
:103d20000418540005985c0006185d0007985d00b3
:103d3000110020000440e10005c8e10006d0e100c8
:103d400007d8e100010039008000eb001088100066
:103d50004f05be004f04be00000006001200fa002e
:103d6000889fbe008a9fbe008c9fbe00e0b79f0068
:103d7000f1b79f0082bf9f0093bf9f000605be0062
:103d80000404be000000eb00d0b79f00c0b79f0046
:103d9000b0b79f00a0b79f0090b79f000006eb0050
:103da0005fb19700cfb09700820141003fb097000c
:103db0000200e00004003d00370007007e8057004d
:103dc000c0ff070003003700330007007e80570064
:103dd000cfff0700dfb697000d00e0000c003500b4
:103de0006fb29700ffb297000fbb97009fbb970081
:103df00010002000010020006011b80000027200d5
:103e00008182720002037300838373001b0007002a
:103e10000c06e80001042000810f5600e0ff3a0084
:103e20000d00e00004003d000802be000a03be00d1
:103e30007e805700a3ff07005fa897000000e00006
:103e400005003a001fb29700afb297003fb397004a
:103e5000cfb39700090007006fb09700ffb097003d
:103e60000fb997009fb997004f06be004f05be00df
:103e70004f04be000080fa000000060001000700a9
:103e800000000600a4b79f00b5b79f00c6b79f000b
:103e9000d7b79f00000006004f09de008281710045
:103ea000b3b79f004f01de00818040008280700028
:103eb000a1b79f008fb097004f09de0000004000bf
:103ec0000200700090b79f007fa897004f01de00ae
:103ed000818040008280700081b79f000d00070044
:103ee0004f3ade000000400004007000f0af9f0079
:103ef000080007000402420085824a0006034b00c6
:103f000087834b00dfff07000802be000a03be00e4
:103f1000000006002fb29700bfb297004fb3970082
:103f2000dfb3970000000600881f7800180020000b
:103f3000881f780089ff07008f87e9004f04780009
:103f400000000600801feb0084ff07008f87e90058
:103f500000000600889fbe008a9fbe00e00f500050
:103f6000e08f5800e00f5900e08f59000c003d0031
:103f70006044b8006055b8000000540081805c00c7
:103f800002015d0083815d0018002000150007001c
:103f900008003d00180007000004eb000500370092
:103fa0000004eb000f00070002003d0012000700b4
:103fb00018002000dcff07000800e00006003200c7
:103fc0006022b8006033b8000000520081805a00bf
:103fd00002015b0083815b004f05be004f04be0001
:103fe00000000600e00f5200e08f5a00e00f5b0077
:103ff000e08f5b00000006006044b8006055b80028
:104000000402540085825c0006035d0087835d0026
:1040100000000600889fbe008a9fbe008c1f7800ab
:10402000e00f5000e08f5800e00f5900e08f59007a
:104030000d003d006044b8006055b8000000540019
:1040400081805c0002015d0083815d001c00200016
:104050000820e10009a8e1000ab0e1000bb8e10086
:104060000d003d00080037000006eb00e00f520095
:10407000e08f5a00e00f5b00e08f5b0006003d0020
:104080006044b8006055b8000402540085825c00aa
:1040900006035d0087835d00aaff07000c00e000b7
:1040a000060032006022b8006033b8000000520001
:1040b00081805a0002015b0083815b004f0678001b
:0c40c0004f05be004f04be0000000600cb
:020000040000fa
:1020000010110400000000005a2604000000000027
:102010005a260400000000005a26040000000000b8
:102020005a260400000000005a26040000000000a8
:102030005a260400000000005a2604000000000098
:102040005a260400000000005a2604000000000088
:102050005a260400000000005a2604000000000078
:102060005a260400000000005a2604000000000068
:102070005a260400000000005a2604000000000058
:102080008a2504000000000028250400000000004c
:102090005a260400000000005a2604000000000038
:1020a0005a260400000000005a2604000000000028
:1020b0005a260400000000005a2604000000000018
:1020c0005a260400000000005a2604000000000008
:1020d0005a260400000000005a26040000000000f8
:1020e0005a260400000000005a26040000000000e8
:1020f0005a260400000000005a26040000000000d8
:102100005a260400000000005a26040000000000c7
:102110005a260400000000005a26040000000000b7
:102120005a260400000000005a26040000000000a7
:102130005a260400000000005a2604000000000097
:102140005a260400000000005a2604000000000087
:102150005a260400000000005a2604000000000077
:102160005a260400000000005a2604000000000067
:102170005a260400000000005a2604000000000057
:102180005a260400000000005a2604000000000047
:102190005a260400000000005a2604000000000037
:1021a0005a260400000000005a2604000000000027
:1021b0005a260400000000005a2604000000000017
:1021c0005a260400000000005a2604000000000007
:1021d0005a260400000000005a26040000000000f7
:1021e0005a260400000000005a26040000000000e7
:1021f0005a260400000000005a26040000000000d7
:102200005a260400000000005a26040000000000c6
:102210005a260400000000005a26040000000000b6
:020000040000fa
:1000080004100000081000000c1000001010000080
:10001800141000000c1100000c1100000c1100005d
:10002800181000001c100000201000002410000010
:100038000c110000281000002c10000030100000e7
:1000480034100000381000003c1000004010000080
:1000580044100000481000000c1100000c110000b2
:100068004c10000050100000541000005810000000
:100078005c1000000c11000060100000641000000b
:100088000c110000681000006c10000070100000d7
:1000980074100000781000007c1000008010000030
:1000a80084100000881000000c1100000c110000e2
:1000b8000c1100008c10000090100000941000003b
:1000c800981000009c100000a0100000a410000070
:1000d800a8100000ac1000000c1100000c1100006a
:1000e8000c110000b0100000b41000000c1100004a
:1000f8000c110000b8100000bc1000000c1100002a
:100108000c1100000c1100000c1100000c11000073
:100118000c1100000c110000c01000000c110000b0
:100128000c110000c4100000c8100000cc10000022
:100138000c1100000c1100000c1100000c11000043
:10014800d01000000c1100000c1100000c11000070
:100158000c110000d41000000c1100000c1100005c
:100168000c110000d8100000dc100000e0100000a6
:10017800e4100000e8100000ec100000f01000008f
:10018800f4100000f8100000fc100000001100003e
:1001980004110000081100000c1100000c110000ef
:1001a8000c1100000c1100000c1100000c110000d3
:1001b8000c1100000c1100000c1100000c110000c3
:1001c8000c1100000c1100000c1100000c110000b3
:1001d8000c1100000c1100000c1100000c110000a3
:1001e8000c1100000c1100000c1100000c11000093
:0801f8000c1100000c110000c5
:020000040000fa
:1040cc00616e0000676c0000657300003a20000010
:0c40dc00256400000d0a00000000000038
:020000040000fa
:1040e8000400fa00f0c2a900f2c2a800f0e2a80099
:1040f800006c2000000f780000682000100798006e
:10410800113a8000f00b200000816000600420005c
:1041180071052000237420008049780081497800c7
:10412800824978001e0090004002b000a1c1b3008f
:10413800014878009e0078007580400031c0b300c7
:1041480001487800103a8000000178000260a00061
:104158006004200071052000237420008049780045
:104168008149780082497800800020000011880089
:104178002002200040118800608120001040880043
:1041880000402000204088000000eb0030408800fc
:104198000000eb00404088000000eb005040880021
:1041a800003020000040880060c120006040880086
:1041b80000402000704088000000eb00804088002c
:1041c8000000eb00904088000000eb00a040880051
:1041d80023e2a90023a2a8008580a9009580a80051
:1041e8008560a9009560a80021e2a8002342a800e4
:1041f8000080fa00000006000000fa00a0408000dd
:104208000080fa00000006000000fa00111180008a
:1042180000402000008060000000e00001003a003b
:104228002342a8000080fa00000006000200fa00fd
:10423800004f7800000000005140800020408000be
:10424800808f5000fcff3200ff3ffc0011408000cf
:1042580040408000008040001e48780040408000b8
:104268000000e80040408800414080002040800075
:10427800808f500002003a000000eb0040408800a8
:10428800504080000000e800504088005220ef00b5
:104298005140800000408000808f500001003900ac
:1042a8002342a8000080fa00000006000200fa007d
:1042b80000000000a04080000000e000fdff320088
:1042c800ff3ffc006140800080408000008040008b
:1042d800104f7800804080000000e800804088008f
:1042e8008140800070408000808f500002003a00ba
:1042f8000000eb0080408800a04080000000e9003a
:10430800a04088005220ef001e4078000080fa008c
:10431800000006000200fa00000f780004003700d1
:104328001e007800104078001e0fe800bfff07004d
:104338001e007800104078000004e000f8ff3a0002
:10434800b1ff07000080fa00000006000400fa0030
:10435800000f7800110798001e0090000000e00090
:104368001a0032001e009000e10f500004003a00cd
:104378001e0078008040eb000148780014003700e8
:10438800caff07009e007800804878001e00780069
:1043980010407800ed4f5000080032001e009000d9
:1043a800e10f5000050032001e0fe8001e009000cb
:1043b8000000e90010079800f1ff37001e007800a0
:1043c8008040eb0001487800010037000000000041
:1043d8000080fa00000006000800fa002007980094
:1043e800310798003e0090000000e0006f003200a6
:1043f8003e009000e10f500004003a002e009000ab
:104408008040eb000148780069003700b0c1b30074
:1044180086ff070070c3b30084ff07007aff070018
:10442800ae00900011079800be009000010f7800c0
:104438000300370000000000010037000000000002
:104448009aff0700ae009000804878002e00900088
:1044580010407800ed4f500009003a002e009000ff
:104468008040eb0001487800a0c0b3006fff070050
:10447800d0c0b3006dff070063ff07004c00370092
:104488002e00900010407800fb4f500010003a00ba
:10449800b0c1b30065ff070080c3b30063ff070026
:1044a800b0c1b30061ff0700b0c5b3005fff0700ec
:1044b800b0c4b3005dff070053ff07009e009000e3
:1044c80021079800be009000010f780036003700e1
:1044d8002e00900010407800e84f50000500320090
:1044e8002e00900090407800f0c7b30080cf5000b5
:1044f80014003a00ae0090001e009000808f50001b
:104508000c00360080c0b30048ff070000c2b300ab
:1045180046ff070080c0b30044ff07003aff0700ca
:104528002e0090000000e900200798001e0fe80008
:104538000300370070c0b3003cff070032ff0700dc
:10454800190037001e007800e10f500004003a00ff
:1045580070c0b30035ff07002bff070012003700bb
:104568002e00900010407800ff4f5000b1ff360039
:104578002e00900090407800e0c7b30080cf500034
:10458800aeff3e002e0090001040780027ff070085
:104598001dff07002e0090000000e800200798008b
:1045a8001e0fe900a6ff3700a5ff37000000000036
:1045b8000080fa00000006000800fa0010079800c2
:1045c80021079800320798001e0090006000400004
:1045d800e20f500010003e000000eb00000f7800d2
:1045e800070037002e00900010407800ae009000c1
:1045f8008100e800210798000cff07001e0fe80063
:104608009e0078003e009000808f5000f5ff390032
:10461800fdfe070001003700000000003e0090008a
:104628000080fa00000006000200fa00000f78007f
:104638001e0078004800de001e0f68001e0078008b
:104648004400de001e0f68001e0078004200de00f5
:104658001e0f68001e0078000000d1001e0f6800c1
:104668009e007800618060000080fa00000006006b
:104678000a00fa00881f7800400798004e00900052
:1046880000e0a000300798003e0490003e00900033
:10469800e5ff07004f00dd000800700030079800b4
:1046a800eaa2a9007e4090000080fb004013880029
:1046b8000000000000138000610060000000e000be
:1046c800fcff320041138000010f78006e4090001b
:1046d8000080fb00401388000000000000138000e9
:1046e800610060000000e000fcff32004113800020
:1046f800010f7800eaa2a8000000000000000000f6
:1047080000000000000000000000000000000000a1
:10471800eaa2a9006822ef00000000000013800050
:10472800610060000000e000fcff320040138000e0
:10473800204798006822ef00000000000013800066
:10474800610060000000e000fcff320040138000c0
:10475800304798002e4090008080fb003e4090003b
:104768000080fb004800dd00008040002007980022
:10477800eaa2a8002e0090004f0478000080fa00fa
:10478800000006000800fa000b01070054fe0700ad
:104798000001200020088800f0c3290010088800c4
:1047a8000021ef008460a90005e1a800e8a2a900a3
:1047b800eaa2a800e882a900ea82a900d8a2a90072
:1047c800daa2a900d882a800006c2000000f7800a7
:1047d8000068200010079800113a8000f00b2000b4
:1047e800008160006004200071052000237420000f
:1047f8008049780081497800824978001e0090003d
:10480800c002b00091c1b300014878009e00780052
:1048180074804000a1c0b300014878009e00780071
:104828006a804000b1c0b30001487800103a8000a7
:10483800000178000260a0006004200071052000db
:1048480023742000804978008149780082497800e3
:10485800b0032000101388006422ef000000280035
:1048680000138800f0ff230020079800d962a900f0
:10487800d902a900db02a800db62a900e862a9004e
:10488800ea62a80001003700000000002004800050
:10489800680060000000e000fbff32008460a900af
:1048a8002e00900072ff070030079800be009000ad
:1048b800811f780060062a00801f780020f7070013
:0848c800e4875700f1ff3700ff
:020000040000fa
:1048d000020800001408000080000000000800002a
:1048e0000200000080000000161000008800000098
:1048f0008200000001000000003c10003d103c0060
:10490000103c10003c103c00102c10000000000077
:104910000000000000000000000000000000000097
:104920000000000000000000000208000101640017
:1049300010651000641064001064100064105400ce
:104940001000000000000000000000000000000057
:104950000000000000000000000000000000020055
:10496000080202008c108d00108c10008c108c003e
:10497000108c10007c1000000000000000000000ff
:104980000000000000000000000000000000000027
:104990000000000016103e0010661000000000002d
:1049a000000000000000000000000000de10000019
:1049b0000200000080000000c01000001a0000008b
:1049c00082000000686a6c00747a4c0000000100ec
:1049d0000002000004000800001000000000200099
:1049e0002b2d230030000000e0100000020000002a
:1049f0008200000004000000da1000000400000043
:104a0000800000009e1000002200000082000000d4
:104a10003031320033343500363738003941420006
:104a2000434445004600300031323300343536000f
:104a30003738390061626300646566000000000079
:104a4000e2100000020000008000000000000000f2
:020000040000fa
:104a5000809fbe003200f8003400f80010002000f3
:104a6000a001880000202000900188000200fa00c8
:104a70008580a900504080000000e00017003a0047
:104a80002342a90016003700ff3ffc0011408000c0
:104a90003040800000804000104f7800304080009f
:104aa0000000e80030408800314080002040800055
:104ab000808f500002003a000000eb003040880078
:104ac000504080000000e900504088005220ef0074
:104ad0001e80fb002011880001003700000000004c
:104ae0001111800000202000008060000000e00024
:104af00003003a00504080000000e000e2ff3a006e
:104b00000080fa003400f9003200f9004f00be00c6
:104b100000400600809fbe003200f8003400f8001c
:104b200010002000a00188000020200090018800d3
:104b30000000fa008560a90014003700ff3ffc0068
:104b40006140800090408000008040003111800072
:104b50008140780001487800904080000000e80023
:104b6000904088009140800070408000808f50000d
:104b700002003a000000eb0090408800a040800056
:104b80000000e800a04088005220ef0010118000d3
:104b9000610060000000e00004003200a1408000dd
:104ba00070408000808f5000e4ff3a000080fa00df
:104bb0003400f9003200f9004f00be00004006004a
:020000040000fa
:104bc0000000fa0000102000203a8800d8a2a800b7
:104bd000d882a800e882a800e8a2a800c9e2a8003c
:104be000e862a800d902a800d962a800d922a800ca
:104bf000d942a800d802a800d822a800d842a8000c
:104c0000d862a800c8a2a800c882a800c862a800ec
:104c1000c842a800c822a800c802a800f0032000cb
:104c200010278800e424ef00e624ef00ea24ef00d8
:104c3000ec24ef00000e2000001988002223ef0072
:104c400000c420002019880050002000401988006e
:104c500021e3a800d8e2a900dce2a900e802a9004b
:104c6000ec02a900e822a900ec22a900d1e2a800e8
:104c7000d182a800c982a8000080fa0000000600c6
:104c80000200fa00000f78009e00780041198800a9
:104c90002023a800000000000019800061006000cf
:104ca0000000e000fcff3200001880000080fa00e5
:044cb00000000600fa
:020000040000fa
:084cb4000040da000000fe00e0
:00000001FF
