:020000040000fa
:04025c0076330000f5
:020000040000fa
:040210007633000041
:020000040000fa
:0402740076330000dd
:020000040000fa
:04033400763300001c
:020000040000fa
:04035c0076330000f4
:020000040000fa
:0402700076330000e1
:020000040000fa
:04022c007633000025
:020000040000fa
:04023c007633000015
:020000040000fa
:0402bc007633000095
:020000040000fa
:0402c0007633000091
:020000040000fa
:0402c400763300008d
:020000040000fa
:0402c8007633000089
:020000040000fa
:0402800076330000d1
:020000040000fa
:0402840076330000cd
:020000040000fa
:04039c0076330000b4
:020000040000fa
:040228007633000029
:020000040000fa
:0402780076330000d9
:020000040000fa
:04029c0076330000b5
:020000040000fa
:0402fc007633000055
:020000040000fa
:040300007633000050
:020000040000fa
:0402600076330000f1
:020000040000fa
:0402640076330000ed
:020000040000fa
:04027c0076330000d5
:020000040000fa
:0402880076330000c9
:020000040000fa
:0402b00076330000a1
:020000040000fa
:0402b400763300009d
:020000040000fa
:0402b8007633000099
:020000040000fa
:040238007633000019
:020000040000fa
:0402e0007633000071
:020000040000fa
:0402e400763300006d
:020000040000fa
:0402e8007633000069
:020000040000fa
:0402f400763300005d
:020000040000fa
:0402f8007633000059
:020000040000fa
:04030400763300004c
:020000040000fa
:040308007633000048
:020000040000fa
:04030c007633000044
:020000040000fa
:040310007633000040
:020000040000fa
:04031400763300003c
:020000040000fa
:040318007633000038
:020000040000fa
:04031c007633000034
:020000040000fa
:04032400763300002c
:020000040000fa
:040328007633000028
:020000040000fa
:040338007633000018
:020000040000fa
:04033c007633000014
:020000040000fa
:040340007633000010
:020000040000fa
:04034400763300000c
:020000040000fa
:04034c007633000004
:020000040000fa
:040350007633000000
:020000040000fa
:0403540076330000fc
:020000040000fa
:0403580076330000f8
:020000040000fa
:0403600076330000f0
:020000040000fa
:0403640076330000ec
:020000040000fa
:0403680076330000e8
:020000040000fa
:040348007633000008
:020000040000fa
:04026c0076330000e5
:020000040000fa
:0402f0007633000061
:020000040000fa
:04037c0076330000d4
:020000040000fa
:040218007633000039
:020000040000fa
:040230007633000021
:020000040000fa
:040240007633000011
:020000040000fa
:04028c0076330000c5
:020000040000fa
:0402900076330000c1
:020000040000fa
:0402cc007633000085
:020000040000fa
:0402d0007633000081
:020000040000fa
:0402d400763300007d
:020000040000fa
:0402d8007633000079
:020000040000fa
:0403980076330000b8
:020000040000fa
:04020c007633000045
:020000040000fa
:0402dc007633000075
:020000040000fa
:040320007633000030
:020000040000fa
:040208007633000049
:020000040000fa
:04021c007633000035
:020000040000fa
:040220007633000031
:020000040000fa
:04022400763300002d
:020000040000fa
:0402680076330000e9
:020000040000fa
:0402ec007633000065
:020000040000fa
:0403780076330000d8
:020000040000fa
:04024c007633000005
:020000040000fa
:040250007633000001
:020000040000fa
:0402a80076330000a9
:020000040000fa
:0402ac0076330000a5
:020000040000fa
:0403900076330000c0
:020000040000fa
:0403940076330000bc
:020000040000fa
:04021400763300003d
:020000040000fa
:04023400763300001d
:020000040000fa
:04024400763300000d
:020000040000fa
:040248007633000009
:020000040000fa
:0402940076330000bd
:020000040000fa
:0402980076330000b9
:020000040000fa
:04032c007633000024
:020000040000fa
:0402540076330000fd
:020000040000fa
:0402580076330000f9
:020000040000fa
:040330007633000020
:020000040000fa
:0402a00076330000b1
:020000040000fa
:0402a40076330000ad
:020000040000fa
:04036c0076330000e4
:020000040000fa
:0403700076330000e0
:020000040000fa
:0403740076330000dc
:020000040000fa
:0403840076330000cc
:020000040000fa
:0403880076330000c8
:020000040000fa
:04038c0076330000c4
:020000040000fa
:0403800076330000d0
:020000040000fa
:080000001011040000000000d3
:020000040000fa
:102220000f2821000eff27000e018800000000008b
:10223000000020000000e000020032000001200049
:102240002002880014000700ba0007000000e00028
:1022500003003a0080132300010020000200370031
:102260000000200001002000810f700001003200fa
:1022700014000700000020000000e000020032000f
:102280000000020000000000d62d02000000000047
:102290000040da000000fe004440a900a008200031
:1022a0000000e000030032000020200090018800c0
:1022b0004440a800000006008a1f78008b1f7800a9
:1022c00000000600a1028800800478000000eb00f6
:1022d0001f003700e284440054a0b4009905ba00fe
:1022e000e284440054a0b4009906ba00e284440099
:1022f00054a0b4000006eb00476fde00fd07b200fb
:10230000ae018800636ce10003003a00eaff0700b9
:102310000000eb000e003700606ce10008003a009e
:10232000004deb000a05e800020039003420ec0003
:102330000af0a0008b05e900f9ff3e000400370019
:102340006168e100010032000086eb000b0007002d
:1023500019c7ba001905ba000e04e00003003a00dc
:102360000a00e000dbff3a0000000600fe07b200b2
:10237000ae0288008a047800f5ff37000cd0a30075
:10238000e20f4d001c00390089027800354dba007b
:102390000a05e800020039003420ec000af0a00031
:1023a0008b05e9000f003200254dba000a05e80050
:1023b000020039003420ec000af0a0008b05e9008f
:1023c000080032000c00e0000600320015cdba0013
:1023d0000a05e800020039003420ec000af0a000f1
:1023e0008b05e9008984e80054a0b4000b00e000ec
:1023f000e2ff3a00000006009902ba00055d78008d
:102400008b05e900f7ff3200c82ade00055d780081
:102410008b05e900f3ff32000c00e000f1ff320011
:1024200019ddba00eeff3700b62c040000000000f2
:10243000042d040000000000222b04000000000016
:102440004221040000000000842904000000000074
:102450009c12040000000000c614040000000000ec
:1024600000000400000000000a00fa001100200033
:10247000b1bf9f00c0bf9f006a805700ef050700f3
:102480004fb897000080fa00000006000a00fa002a
:1024900051002000b1bf9f00c0bf9f006a8057005d
:1024a000e80507005fb897000080fa00000006000a
:1024b000889fbe0080047800b08e80000000e0009d
:1024c00004003a000e0007000084eb000000e0006a
:1024d00008003500b88e80000900e00005003200d9
:1024e00009004400060007000000e00001003d0074
:1024f0000084eb00080078004f04be0000000600d6
:10250000800078000100e00003003a000000200095
:10251000b08e8800000005000080eb000200200063
:10252000828f500002003e00b18e88000000eb0058
:102530000000060000000500889fbe00000478002f
:102540000100780082047800880178000901780091
:10255000110020000e000700890f5000010032001a
:102560000004eb00080078004f04be0000000600e5
:102570000000fa00e88157004fb99700410621009a
:10258000c0292100570107000080fa000000060062
:10259000889fbe008a9fbe008c9fbe008e1f780061
:1025a00000067800010478000200780083047800b7
:1025b0000881b900020778000200e0004200320002
:1025c0000800e0004100320082057800c900900058
:1025d00069009000808f50000400390009007800e5
:1025e000500007000000e0002900350000402000f6
:1025f000190060000a0032000b017800a1002000e1
:102600000c00780036000700800678000d00e0001e
:1026100006003200610516000a85460004003700f6
:102620000b0578008006eb00010037000b057800f1
:1026300049009000e9009000808050008a8f50008f
:1026400002003100010578008006eb000a017800e5
:102650008c0078002c0007008a8555004900900006
:102660000a004000c00498000d00e00004003200a1
:1026700009007800d50007000000e00004003a00df
:102680000b00e000020032000a064600cfff3700d0
:10269000008020001900600002003200090078006c
:1026a000ca00070000c020001900600002003200cc
:1026b00049009000e00498008b05570011000900c4
:1026c0008885d800010037000000eb004f07780034
:1026d0004f06be004f05be004f04be0000000600be
:1026e00003003700b0cf1000050032000201e900fe
:1026f000800178000200e000faff3a0000000500c7
:102700000300780000000600800178000200370016
:10271000b15978000201e9000200e000fcff3a0034
:1027200000000600889fbe008a1f78000004780021
:10273000c8009000680190000000eb00828f5000fc
:102740003c003900180078002200290002016000d6
:10275000e20f510007003200012024000000e000d9
:1027600001003d0001202000008c70000080eb0083
:10277000300037000200260002006000820f500087
:1027800009003a0038009000808f500006003900a0
:10279000080078008d000700800078000080eb00c2
:1027a0000100e00023003a001805780000c0200076
:1027b0000000650018003a00a804900060022000a4
:1027c00008004000808f540013003a0000202000d1
:1027d000ed020700200498000000e00005003a0028
:1027e00029049800490498008904e80039049800f5
:1027f000080037000a60a0000a0c78004004980026
:10280000012020008080400031049800400c980096
:10281000500c98000c00070028009000500498000d
:10282000380090006004980000002600180c70002a
:102830000000eb004f0578004f04be0000000600ca
:10284000604c21009b003700881f7800281d210064
:102850001804e00003003a00f9ff070020c0b300ad
:10286000004c78004f04780000000600889fbe00ee
:102870000004780008007800540007008004780005
:1028800000042000180060000200320028009000c0
:10289000580207000000eb00200498003840900028
:1028a0000004e000050035000000fb00eefe07001c
:1028b0000000e000010032008084eb00181090005e
:1028c0000000e00008003200f0fe07000000e00019
:1028d000010032008084eb001810900045020700d0
:1028e0000000eb00101498000008200018006000a1
:1028f000150032000001eb006000b800430b21001e
:102900000202d00063027a00880f520005003a00ec
:102910000000400081804800008041000008eb007a
:102920000600370061004000e08048000201e80036
:10293000e80f5000e08f5800f0ff3a0008007800e0
:102940002c0207000e003700000c780000c0eb00de
:1029500030449800600220000800400020049800e5
:102960004004980050049800400c980060049800bf
:10297000500c98007004980076004400000c9800f9
:10298000090078004f04be0000000600881f780090
:102990000004eb006140b800e2ff2f00f3ff2f00be
:1029a000cc040700220c2100620078000000e00047
:1029b00001003200adff07000804e800e80f5400f2
:1029c000f4ff3a004f04780000000600889fbe0024
:1029d000000478000800e0000e003a008004eb00dc
:1029e0008800d000400b2100610078000000e0006a
:1029f00004003200f5ff07000000e00001003d0088
:102a00008084eb000804e800e80f5400f4ff3a006b
:102a10002500370000002200180060008004eb0051
:102a200021003200a80490000f0037000901510076
:102a3000384090000000fb0089007800f00d07008e
:102a40000000e00007003c002800900040049800cf
:102a500060049800500c98001890a0008084eb004f
:102a6000110037008084440048019000828f540098
:102a7000eeff39002800900040049800980078008c
:102a800002c020000281600001003a00380090007e
:102a900001e8a30002003200600498000100370042
:102aa000500c98008004eb00090078004f04be0031
:102ab00000000600010020000100e00008003200d4
:102ac000010080000100e000050032008100e90003
:102ad000010088008100d0000200800000b1780071
:102ae000000006006200fa00889fbe008a1f78007e
:102af00000057800810478000204780083007800e3
:102b000080f92f000f0040004a0407009a979f00a9
:102b1000a9979f000000eb00b09f9f001885fb0065
:102b20008a04fb000a05ea004f55de00500220002f
:102b3000808f54000d003200e10f55000b003a0069
:102b40000a017800880078002f9097009f919700e5
:102b500003000100a0979f000000e0008e003200fb
:102b60003f9897000000e800b09f9f000a044400cf
:102b700050022000808f5400040032000900e00061
:102b8000e6ff3a003f989700840037000000eb0012
:102b9000909f9f00809f9f00f0979f00e0979f006d
:102ba000d0979f00c0979f0007003700811c21002d
:102bb0000100500000004000c11b210061007800ae
:102bc000df98970001007000d09f9f008804780074
:102bd00009047800384578008a00fb00801c210039
:102be000130207000000e000f0ff3a00a1c2b300aa
:102bf000814f55000e003a00cf8897000180e90010
:102c0000c08f9f0010007800c09f9f000000e00070
:102c100005003d000000ea00c09f9f005f989700fc
:102c20000020a000d09f9f000904e8000f0037009b
:102c3000c09f9f000000eb0005003700f2ff270057
:102c4000820f5000020032006a01b9000280400089
:102c50000904780088047800b900fb000103b10082
:102c6000e98f5000f5ff3600c09f9f00e0c2b3001f
:102c7000984f1000020032000080eb00190037006e
:102c8000a0c2b300d84f100007003a00cf889700c9
:102c90000180e900c08f9f0010007800a09f9f0076
:102ca0000804e800100037000000eb00a09f9f0020
:102cb0008800780005003700f3ff2700830f5000dd
:102cc000020032006a02b9000400410001047800e9
:102cd000880078003101fb000203b100e90f5100c8
:102ce000f5ff3600a09f9f00984478008900fb0004
:102cf000401b2100ce0107000000e000020032006e
:102d00000804e800010037008044eb00c97f9f0001
:102d100080c6b30080cf540004003a0098cf14005e
:102d20000a003a006640500006003700c0c6b300f3
:102d300080cf540005003a0098cf140003003a00f9
:102d400065404000c07f9f000804e8001801fb00b8
:102d5000e3fb2f008f81410081f92f008f8040001d
:102d6000a0f92f000f004000100007000000e00055
:102d700009003a00e1fb2f008f804000a0f92f00ee
:102d80000f004000ef0207000000e00002003500e5
:102d90000804e80061ff37000080eb004f05780071
:102da0004f04be000080fa0000000600889fbe00ad
:102db0008a9fbe00e4c6b300844f5100be003200bb
:102dc00010003c006b425200844f5100180032004a
:102dd00005003c0054c2b300844f5100f60032009d
:102de00084c5b3000f00370044c6b300844f5100c0
:102df0001400320065424200844f5100f1003a0055
:102e00001000370004c7b300844f5100dd003200ca
:102e10005600350065424200844f51005300320095
:102e200063424200844f5100e6003a004f003700f1
:102e30001181e90082087800f000900012417800ca
:102e4000de00370020629000c5c6b300854f5200f7
:102e500007003a00910278006482520084087800ea
:102e60001402be004fabde0086037800140037006a
:102e700015c7b300854f520003003a0011047800d3
:102e80006802540005003700a5c6b300854f520004
:102e900006003a00910478006882540084087800a3
:102ea0005403be004402be00050037001182e90051
:102eb0008408780014027800cfa2de00612bb900ec
:102ec0000498be000690be00a060900088c6b300c3
:102ed00088cf50000d00320028c6b30088cf5000c4
:102ee00004003a000402fb00cfa2de00612bb9000f
:102ef0000800370048c7b30088cf500003003200f5
:102f00006644440088cf500004003a00cfa2de009f
:102f1000612bb9000498be000690be003002be00ce
:102f20002003be00f0009000e00f5200e08f5a0036
:102f3000e00f5b00e08f5b0002003d00d4c2b300f5
:102f400008003700001290000418a30002003200ad
:102f5000b4c2b300030037000408a30051003200dc
:102f600004c2b30084f178004c0037002062900066
:102f7000c5c6b300854f520008003a00110578001d
:102f800064025500840878001404be006055b8003f
:102f90000802be000a03be001400370015c7b300c4
:102fa000854f520003003a00910478006882540073
:102fb00005003700a5c6b300854f520006003a0051
:102fc0001105780068025500840878005403be009b
:102fd0004402be00050037001182e9008408780031
:102fe000140278008002eb006033b8000498be0041
:102ff0000690be00a060900088c6b30088cf500045
:103000000d00320028c6b30088cf500004003a00fb
:103010000482fb008002eb006033b8000800370038
:1030200048c7b30088cf5000030032006644440014
:1030300088cf500004003a008002eb006033b800f3
:103040000498be000690be00801090000138a300d6
:10305000140032003002be002003be00e00f520018
:10306000e08f5a00e00f5b00e08f5b000d00320044
:1030700081c7b300814f51000300320081c5b30006
:10308000814f510007003a00f000900004c3b300e4
:1030900084f178008100e80082f178008100e80086
:1030a00071009800f0009000818141006300980059
:1030b000824078003e003700a0619000c4c6b30093
:1030c0001181e90084cf5100220032000a003c0047
:1030d0006442520084cf51002500320004c2e8004f
:1030e00084cf5100130032006842520084cf510057
:1030f0001e003a000a00370044c7b30084cf5100d5
:103100001b0032006642420084cf5100180032009a
:103110006942520084cf510014003a000500370084
:10312000820878009200780040589000804878002b
:103130002c0037008208780092007800600a900026
:10314000cfa2de00612bb9008498be008690be003d
:10315000240037008208780092007800600990000f
:10316000cf91de008288be001e0037001181e90089
:10317000820878009200780060089000800878004b
:10318000180037001181e9008208780012027800e7
:10319000cfa2de00612bb9000498be000690be00ed
:1031a000f0009000818141006300980081c7b30066
:1031b000b50007000b003700f000900082f17800a6
:1031c00006003700f0009000818141000204e00019
:1031d00001003a0052c2b300824978008100e80041
:1031e000710098000000eb004f05be004f04be00c8
:1031f000000006000000e0002f003200c00178004f
:10320000e38f51002c0036000308a3002a003a0087
:10321000818e80000100e00002003200810f50002a
:103220000400310011009800808e880016003700dd
:1032300082007800110190000200e00002003200dc
:10324000800f5100faff390011027800848240009b
:10325000850f500018003900808f520003003a009b
:103260008308420001007800070037000200e000f8
:103270000300320083014000830f51000e0039002b
:103280001200980090009800900090000100e0006b
:103290000900320010014000828f500006003a0001
:1032a000e21c21000009eb00100178001108410028
:1032b000910090001100980000000600889fbe0059
:1032c00000047800718e80000100e00002003200ee
:1032d000010078000d003700818e8000001d210064
:1032e00004003700910f5400250036000180e800eb
:1032f000910090000100e000faff3a001000370052
:10330000920f54001e0036000280e8001001780081
:103310000200e000faff3a0011017800818e80007f
:10332000001d210004003700910f540014003600e6
:103330000180e80091009000828f5000faff3a006f
:10334000a98e8000888f5400010031008804780025
:1033500009007800420007000000e00004003a0085
:10336000888f5400050032008904d100f5ff370032
:10337000091878009fff0700d2ff37000000eb001c
:103380004f04be0000000600881f78006304400060
:103390000800a1008000eb00800f540021003600df
:1033a000e30f540001003e004800200008007800b0
:1033b000c2ff07008000eb000000e00019003200af
:1033c000900078009101780064815100880f5100cd
:1033d0000300310011019000020878000700370057
:1033e00008814000020878009101900013019800c4
:1033f0001001780011091400880878001001780085
:103400000000eb000200e000040032009201900096
:103410000300e000010032000280e800708e8800a6
:103420008180e800010078004f0478000000060069
:10343000020037000304e0000600320000017800bb
:1034400002007800b041780081cf5100f9ff3a00c6
:10345000010037000001eb000200780000000600c8
:10346000800078000000eb000100e000050034005f
:10347000010078000efc0700e10f400001003a0057
:103480000000eb0000000600fc874700889fbe009c
:103490008a9fbe008c9fbe008e1f780000067800b9
:1034a00080c5b30080cf50000a0032007740400052
:1034b00080cf50000a0032006940400080cf5000a9
:1034c0000b003200301a210080bf9f00ae002000a8
:1034d0000a0037002219210082bf9f000600370032
:1034e000331a210083bf9f008e00200003003700a5
:1034f000341a210084bf9f000e0120003c02be0050
:103500002c03be000605be000404be0040c6b30086
:1035100080cf5000030032006540400080cf500053
:103520000b003a00e00f5200e08f5a00e00f5b0002
:10353000e08f5b0006003d006000b8006011b8003d
:1035400004045000858458000605590087855900f9
:10355000e80f57000400320040002000f00f570031
:1035600038003a000100370030002000e00f54001e
:10357000e08f5c00e00f5d00e08f5d0004003a002a
:10358000dc0890008d0120000100e0000600320000
:103590008e00e900888060008fba9700e5c078004f
:1035a000f1ef9f007d012000800078008100e9009c
:1035b000050033008b05d1000a85d3008984d30030
:1035c0000884d300f9ff3700089ebe000a96be00ab
:1035d000120037008d06e9008e00e900848060004b
:1035e0000fb99700e2c1780082fd2f000f01410062
:1035f00003f17e00800078008100e90005003300bf
:103600008783d1000683d3008582d3000482d30050
:10361000f9ff3700049ebe000696be003c02be00c5
:103620002c03be00e00f5200e08f5a00e00f5b0059
:10363000e08f5b008b0034000d00e000e5ff3c00f4
:10364000880037002c60900081c6b300814f500085
:103650000b00320006003c000004e00008003200cd
:10366000e6c05000814f50004e003a000400370081
:10367000c1c6b300814f50004a003a002100370014
:103680000800e00004003a005c0890008d01200072
:103690000000e00006003200110009000e84d8008e
:1036a0000fb99700e2c07800f1ef9f007d01200084
:1036b000110009000e84d8000a003700110009002b
:1036c0000e04d8008d06e9000e81b90002045400f2
:1036d0008fb8970061417c0081fd2f008f804000f2
:1036e00082f07e00000478000800e0000200320052
:1036f0000d00e000f1ff3c00cfc4de00614db900d9
:1037000025003700e00f5400e08f5c0004003a0011
:103710005c0890008d0120000000e00007003200ee
:103720006171b9000800be00670107008fb99700fa
:10373000e3417800f3ef9f007d0120006171b90043
:103740000800be00500107000b0037006171b9008e
:103750000800be003d0107008d06e90000f1b90038
:10376000020454000fba9700e4427c0084fd2f004d
:103770000f02420005f27e000004be00e00f500080
:10378000e08f5800020032000d00e000efff3c0027
:103790004fcdde008a057800089ebe000a96be0066
:1037a00030003700e00f5400e08f5c00e00f5d0058
:1037b000e08f5d0004003a005c0890008d0120005d
:1037c0000000e000090032006172b900612bb9000d
:1037d0000800be000a01be00e40107000fba97000e
:1037e00064427800f4ef9f007d0120006172b9000f
:1037f000612bb9000800be000a01be00d401070019
:103800000d0037006172b900612bb9000800be00dd
:103810000a01be00d90107008d06e90000f2b900d7
:10382000040454008fba970065427c0085fd2f0088
:103830008f82420084f27e00009ebe000296be008f
:103840003c04be002c05be00e00f5400e08f5c007d
:10385000e00f5d00e08f5d00020034000d00e0002d
:10386000e8ff3c00e80f570010003a000c109000f1
:103870000038a3000d003200f78f560006003e000e
:1038800085fd2f008f824200e5c07e0000c3b3009b
:1038900080cf5000050032008d06e90002c3b3005e
:1038a00081fd2f008f80400082f07e00788116001d
:1038b000120e98006c00900083fd2f008f81410054
:1038c0008d80410090fb07001c089000dc089000f0
:1038d000810f500006003d0000805000000e98004f
:1038e0000c1090000040a100001698000f00370057
:1038f0000100e0000d003d008c109000f48060009d
:10390000f08f500009003a007c099000fc00900004
:10391000810051000c09900082805000008050000e
:103920004240a90001003400000e98004f077800c3
:103930004f06be004f05be004f04be00cf01b100d0
:10394000000006000400fa00889fbe008a9fbe00a7
:103950008c1f78000004780001067800f80d9000b4
:1039600078009000808555000808900080855500fb
:103970001808900080855500280890008085550023
:1039800038089000808555004808900080855500d3
:103990000002220090bf9f0000032300a0bf9f00f1
:1039a000081090000028a30015003a000b00e0006a
:1039b000130034000b0578008a047800e20f5500ec
:1039c0000100360029002000c8019000090178009c
:1039d000ee8057005800900003000100500498004a
:1039e0000000e0008c0032006808900009004000f0
:1039f000600c9800090555004240a900eeff3c000c
:103a0000780190000200e0000c003400c801900032
:103a10008c007800580090000300010050049800ca
:103a20008080eb000000e0007c003200e80890009d
:103a30007800900000804000600c9800880c900096
:103a40000900e0001100340009057800e28f5400fd
:103a5000010036002a002000c80190000a01780009
:103a6000ec805700580090000300010050049800bb
:103a70000000e00068003200680890000a00400082
:103a8000600c98008a845400edff370018099000fc
:103a90000200e0000c003400c8019000e800900033
:103aa0005800900003000100500498008080eb0053
:103ab0000000e00059003200e8089000180890006b
:103ac00000804000600c9800a80c90000900e00005
:103ad0001100340009057800e28f5400010036001f
:103ae0002a002000c80190000a017800ec805700ed
:103af0005800900003000100500498000000e0000e
:103b000045003200680890000a004000600c9800f0
:103b10008a845400edff3700380990000200e0006d
:103b20000e003400e80090001808900080804000eb
:103b3000c801900058009000030001005004980054
:103b40008080eb000000e00034003200e8089000c4
:103b50003808900000804000600c9800c80c90006d
:103b60000900e0001100340009057800e28f5400dc
:103b7000010036002a002000c80190000a017800e8
:103b8000ec8057005800900003000100500498009a
:103b90000000e00020003200680890000a004000a9
:103ba000600c98008a845400edff370008109000e4
:103bb0008000eb000028a300180032000b00e0009a
:103bc000160034008b04780009057800e28f540059
:103bd000010036002a002000c80190000a01780088
:103be000ee80570058009000030001005004980038
:103bf0000000e00008003200680890000a00400061
:103c0000600c98008a8454004240a900eeff3c00fa
:103c10008000eb00010037008080eb00010078009d
:103c20004f0678004f05be004f04be000080fa002a
:103c300000000600010878000000060000c0da005d
:103c40000000060000c0da0000000600839f680044
:103c50000100e00002003d0060001000e08018005c
:103c60000300e00002003d0060011100e081190046
:103c7000050007004f00e00002003b00600010005c
:103c8000e0801800000006006022b8000602200054
:103c90000000d0008180d2000482d2008582d20050
:103ca0000000a0000202520083825a00030031008b
:103cb0000202420083824a000000a1000603e900dc
:103cc000f3ff3a0000000600efff07000400be000b
:103cd00000000600020ab900001bb9000200b8008b
:103ce000810042008100430000000600889fbe0062
:103cf0008a9fbe0030044200b0844a0030054b0069
:103d000090854b006000b1000898be000a90be008c
:103d10000440e10005c8e10006d0e10007d8e10059
:103d200002003100680040001008e8004f05be00a6
:103d30004f04be0000000600889fbe008a9fbe00a0
:103d40003004be002005be000418540005985c0035
:103d500006185d0007985d00110020000440e10096
:103d600005c8e10006d0e10007d8e10001003900f4
:103d70008000eb00108810004f05be004f04be000d
:103d8000000006001200fa00889fbe008a9fbe0055
:103d90008c9fbe00e0b79f00f1b79f0082bf9f00dd
:103da00093bf9f000605be000404be000000eb00a8
:103db000d0b79f00c0b79f00b0b79f00a0b79f00cb
:103dc00090b79f000006eb005fb19700cfb097005f
:103dd000820141003fb097000200e00004003d0076
:103de000370007007e805700c0ff07000300370040
:103df000330007007e805700cfff0700dfb6970033
:103e00000d00e0000c0035006fb29700ffb2970084
:103e10000fbb97009fbb97001000200001002000ff
:103e20006011b80000027200818272000203730008
:103e3000838373001b0007000c06e80001042000c8
:103e4000810f5600e0ff3a000d00e00004003d0045
:103e50000802be000a03be007e805700a3ff0700d1
:103e60005fa897000000e00005003a001fb297002d
:103e7000afb297003fb39700cfb397000900070098
:103e80006fb09700ffb097000fb997009fb99700e8
:103e90004f06be004f05be004f04be000080fa0072
:103ea000000006000100070000000600a4b79f0004
:103eb000b5b79f00c6b79f00d7b79f0000000600a8
:103ec0004f09de0082817100b3b79f004f01de0011
:103ed0008180400082807000a1b79f008fb0970062
:103ee0004f09de00000040000200700090b79f0004
:103ef0007fa897004f01de00818040008280700023
:103f000081b79f000d0007004f3ade00000040001f
:103f100004007000f0af9f00080007000402420098
:103f200085824a0006034b0087834b00dfff0700b2
:103f30000802be000a03be00000006002fb2970070
:103f4000bfb297004fb39700dfb3970000000600a1
:103f5000881f780018002000881f780089ff07005c
:103f60008f87e9004f04780000000600801feb00f7
:103f700084ff07008f87e90000000600889fbe00cd
:103f80008a9fbe00e00f5000e08f5800e00f5900fc
:103f9000e08f59000c003d006044b8006055b80047
:103fa0000000540081805c0002015d0083815d009f
:103fb000180020001500070008003d001800070049
:103fc0000004eb00050037000004eb000f000700c1
:103fd00002003d001200070018002000dcff07006f
:103fe0000800e000060032006022b8006033b8002c
:103ff0000000520081805a0002015b0083815b0057
:104000004f05be004f04be0000000600e00f520046
:10401000e08f5a00e00f5b00e08f5b0000000600bd
:104020006044b8006055b8000402540085825c000a
:1040300006035d0087835d0000000600889fbe00c8
:104040008a9fbe008c1f7800e00f5000e08f580060
:10405000e00f5900e08f59000d003d006044b800aa
:104060006055b8000000540081805c0002015d00d2
:1040700083815d001c0020000820e10009a8e10008
:104080000ab0e1000bb8e1000d003d000800370068
:104090000006eb00e00f5200e08f5a00e00f5b00db
:1040a000e08f5b0006003d006044b8006055b8003a
:1040b0000402540085825c0006035d0087835d0076
:1040c000aaff07000c00e000060032006022b800e2
:1040d0006033b8000000520081805a0002015b008a
:1040e00083815b004f0678004f05be004f04be0081
:0440f00000000600c6
:020000040000fa
:1020000010110400000000007633040000000000fe
:102010007633040000000000763304000000000066
:102020007633040000000000763304000000000056
:102030007633040000000000763304000000000046
:102040007633040000000000763304000000000036
:102050007633040000000000763304000000000026
:102060007633040000000000763304000000000016
:102070007633040000000000763304000000000006
:102080007a32040000000000183204000000000052
:1020900076330400000000007633040000000000e6
:1020a00076330400000000007633040000000000d6
:1020b00076330400000000007633040000000000c6
:1020c00076330400000000007633040000000000b6
:1020d00076330400000000007633040000000000a6
:1020e0007633040000000000763304000000000096
:1020f0007633040000000000763304000000000086
:102100007633040000000000763304000000000075
:102110007633040000000000763304000000000065
:102120007633040000000000763304000000000055
:102130007633040000000000763304000000000045
:102140007633040000000000763304000000000035
:102150007633040000000000763304000000000025
:102160007633040000000000763304000000000015
:102170007633040000000000763304000000000005
:1021800076330400000000007633040000000000f5
:1021900076330400000000007633040000000000e5
:1021a00076330400000000007633040000000000d5
:1021b00076330400000000007633040000000000c5
:1021c00076330400000000007633040000000000b5
:1021d00076330400000000004a33040000000000d1
:1021e0007633040000000000763304000000000095
:1021f0007633040000000000763304000000000085
:102200007633040000000000763304000000000074
:102210007633040000000000763304000000000064
:020000040000fa
:1000080004100000081000000c1000001010000080
:10001800141000000c1100000c1100000c1100005d
:10002800181000001c100000201000002410000010
:100038000c110000281000002c10000030100000e7
:1000480034100000381000003c1000004010000080
:1000580044100000481000000c1100000c110000b2
:100068004c10000050100000541000005810000000
:100078005c1000000c11000060100000641000000b
:100088000c110000681000006c10000070100000d7
:1000980074100000781000007c1000008010000030
:1000a80084100000881000000c1100000c110000e2
:1000b8000c1100008c10000090100000941000003b
:1000c800981000009c100000a0100000a410000070
:1000d800a8100000ac1000000c1100000c1100006a
:1000e8000c110000b0100000b41000000c1100004a
:1000f8000c110000b8100000bc1000000c1100002a
:100108000c1100000c1100000c1100000c11000073
:100118000c1100000c110000c01000000c110000b0
:100128000c110000c4100000c8100000cc10000022
:100138000c1100000c1100000c1100000c11000043
:10014800d01000000c1100000c1100000c11000070
:100158000c110000d41000000c1100000c1100005c
:100168000c110000d8100000dc100000e0100000a6
:10017800e4100000e8100000ec100000f01000008f
:10018800f4100000f8100000fc100000001100003e
:1001980004110000081100000c1100000c110000ef
:1001a8000c1100000c1100000c1100000c110000d3
:1001b8000c1100000c1100000c1100000c110000c3
:1001c8000c1100000c1100000c1100000c110000b3
:1001d8000c1100000c1100000c1100000c110000a3
:1001e8000c1100000c1100000c1100000c11000093
:0801f8000c1100000c110000c5
:020000040000fa
:1040f4001201000000020000000000000040000067
:1041040066660000030000000000000001020000d9
:10411400000100000902000012000000010100007b
:1041240000a00000320900000400000000000000ac
:10413400ff000000ff0000008ca00000040300004a
:10414400090400001a0300004f0000006c00000086
:10415400690000006e000000200000004300000021
:104164006f0000006c0000006c000000650000009f
:1041740067000000650000002003000050000000fc
:104184004900000043000000320000003400000039
:10419400460000004a000000310000003200000028
:1041a4003800000047000000420000003200000018
:1041b4003000000036000000a0a00000a4a0000011
:1041c400bea00000616e0000676c00006573000013
:1041d4003a200000256400000d0a00000061000080
:1041e4006e670000746500006d7000003a200000e6
:1041f400256400000d0a000000250000640d000085
:044204000a000000ac
:020000040000fa
:104208000600fa0040479800a04a200010079800ce
:10421800ce409000014f7800130037001e80fb004d
:10422800000040009e009000008040008000eb00ed
:10423800010878001e80fb00800040002015210046
:10424800008040008000eb00010878001e80fb0021
:104258008000400020172100008040008000eb0013
:10426800010878001e4fe8001e407800ef4f50000c
:10427800eaff36000080fa00000006000000fa009d
:1042880060142100104078000080fb00b0248800f2
:10429800b02480000000e00003003a0010c0b30022
:1042a80010e8b7000200370020c0b30010e8b700dc
:1042b8000000eb00908a88000080fa0000000600e9
:1042c8000000fa009ec0a9009424a8009624ef00dc
:1042d800f00f2000702488009424a9000040eb000f
:1042e800c7ff0700d00020005025880000202100cb
:1042f80001c4b30001487800400c210010908800e8
:104308001020210081c8b300014878004010210026
:10431800309088005020210081c0b3000148780007
:10432800a624ef00a824ef00002021004800de00aa
:10433800c02488008644a80086e4a8008804a80051
:1043480094a4a9000d68ef001068ef0010c0b30036
:104358000ee8b7004014210080c0eb000148780047
:104368005014210080c0eb00014878000000eb00e9
:10437800708a88000000eb00808a88000000000036
:10438800a124800000042000008060000000e000fc
:10439800fbff3a00f00f200060248800f00f200097
:1043a800802488008ec0a9009ec0a8000080fa0062
:1043b800000006000400fa0050248000620060003b
:1043c8000000e00005003200f00f20007024880093
:1043d8002000200050248800ba00370050248000b4
:1043e800640060000000e00003003200400020008c
:1043f80050248800b300370050248000700060000b
:104408000000e00003003200000120005024880072
:10441800ac003700512480000002200000806000ba
:104428000000e00003003200000220005024880051
:10443800a40037005124800000082000008060009c
:104448000000e0000300320000082000502488002b
:104458009c00370050248000610060000000e000ec
:10446800270032000d68ef000800370080002000a8
:104478005024880000000000000000000000000038
:104488000000000000000000000000005024800030
:10449800680060000000e000f4ff3a000040eb0014
:1044a80057ff07000020210001c4b300014878002d
:1044b800400c2100109088001020210081c8b30012
:1044c80001487800401021003090880050202100d9
:1044d80081c0b300014878009624ef00f00f200057
:1044e80050248800d00020005025880010c0b30058
:1044f80010e8b70010c0b3000ee8b700710037002d
:1045080050248000680060000000e0006d00320068
:10451800902480004300de00c200dd00002021005e
:10452800008f40001e0078001040900001e8b7009e
:104538001e0078001040780000e8b7001e007800e0
:1045480010009000104088009024800000407800ff
:104558000fe8b70080002000502488000c68ef00a6
:1045680001c8bf008080fb00c003200000806000fd
:1045780041022000810f5000080032004103200052
:10458800810f500003003200e40f50001700320082
:104598003d0037004e0007003b0037000fc8bf0042
:1045a8000080fb004400de00204798002e40900069
:1045b8000080fb00800040002015210000804000a2
:1045c800100078000000e0002e0032002e4090001d
:1045d8000080fb0080004000201521000080400082
:1045e8001000780000000100270037000fc8bf0046
:1045f8000080fb004400de00204798002e40900019
:104608000080fb008000400020172100008040004f
:10461800100078000000e000070032002e409000f3
:104628000080fb008000400020172100008040002f
:1046380010007800000001002e4090000004e00007
:1046480011003a00708a80000000e0000e003a0075
:104658000020210001c4b300014878001020210087
:1046680081c8b30001487800402021008040eb0059
:10467800014878005020210081ccb300014878001f
:1046880001003700000000000cc8bf000080fb00dc
:1046980061006000004078000004e000090032007a
:1046a8000020210001c4b3000148780050202100f7
:1046b80041c8b300014878001020210041c8b30068
:1046c800014878008ec0a9000080fa0000000600aa
:1046d8000200fa0011408000010f78001e007800e7
:1046e8009040780040802000014878001e0fe800c4
:1046f8001e0078009040780040802000114098000b
:104708001e0fe8001e0078009040780040802000ce
:10471800214098001e0fe8001e00780090407800a5
:1047280040802000314098001e0fe8001e007800ed
:104738009040780040802000414098001e0fe8001b
:104748001e0078009040780040802000514098007a
:104758001e0fe8001e00780090407800408020007e
:10476800614098001e0fe8001e0078009040780015
:1047780040802000714098001e0fe80000202100b2
:1047880001c4b300014878005020210081c0b30063
:104798000148780040802000104078000004e000c4
:1047a8000600350040802000300090000000e00046
:1047b8000200320080ccb3000100370080c8b3008b
:1047c800112021008048780094a4a90040142100f9
:1047d80080c0eb00014878005014210080c0eb0035
:1047e800014878000000eb00708a88000000eb00a8
:1047f800808a880040802000104078008080fb007c
:10480800000620000080600001022000810f500097
:104818001100320001042000810f50000400320012
:104828000000e00016003a001a00070017003700e1
:10483800c04080000000e00003003200c04080005b
:1048480000000100110037000cc8bf000004a000e0
:104858000ce8b7000d003700b04080000000e00011
:1048680003003200b040800000000100070037005c
:104878000cc8bf000004a0000ce8b7000300370014
:104888000cc8bf000004a0000ce8b7000080fa00c4
:10489800000006000600fa0040802000104090004a
:1048a8000080fb00e60f5000ba013200e60f50000e
:1048b8000c003c00e10f5000c1003200e10f500035
:1048c80003003c000000e0001200320085023700bf
:1048d800e30f5000ba003200e50f50008b013200a0
:1048e80080023700e90f500020023200e90f500023
:1048f80003003c00e80f5000110232007902370033
:10490800ea0f50003b023200eb0f50005402320015
:104918007402370040802000104078000080fb00bf
:104928007f006000e10f500013003200e20f5000da
:10493800320032000000e0009c003a003090800015
:10494800e180200091407800014878003090800094
:104958000000e8008040eb0001487800402021007a
:1049680021c0b300014878005020210081ccb30059
:10497800014878009100370010c8bf000080fb0094
:10498800e20f500003003200e30f50000500320030
:10499800190037000cc8bf000004a0000ce8b700dd
:1049a8001500370040802000404090000004e000df
:1049b8000e003a00309080008040eb0001487800fb
:1049c800309080000000e8008040eb00014878004b
:1049d8004020210021c0b300014878005020210068
:1049e80081ccb30001487800030037000cc8bf0031
:1049f8000004a0000ce8b7007000370010c8bf0022
:104a08000080fb00e20f500003003200e30f50006b
:104a180029003200610037004080200040409000ab
:104a28000080fb006f0060000000e0001e003a00fc
:104a38003190800040802000404090000004e00059
:104a480007003d0050202100104078000080fb0046
:104a5800640060004280de000040780006003700f5
:104a680010202100104078000080fb0064006000e6
:104a78004280de0000407800804878003090800056
:104a88000000e8008040eb00014878004020210049
:104a980021c0b300014878005020210081ccb30028
:104aa80001487800030037000cc8bf000004a000cc
:104ab8000ce8b7003c003700a04a2000000f78003f
:104ac80040802000404090006f40600020479800e0
:104ad8002e4090000080fb0000004000800078001d
:104ae80040802000404090000000fb004f00de00a6
:104af80001007000c200dd0000202100008040009d
:104b0800200798002e4090000080fb000000400025
:104b18001e00400090007800408020004040900037
:104b28000004e00002003d004000200001003700c2
:104b380080002000008060000000e00013003200c8
:104b480030908000ae009000914090008180fb0082
:104b5800e4806000c288de00814078000148780067
:104b6800309080000000e8008040eb0001487800a9
:104b78004020210021c0b3000148780050202100c6
:104b880081ccb30001487800030037000cc8bf008f
:104b98000004a0000ce8b700030037000cc8bf00f1
:104ba8000004a0000ce8b700040037000cc8bf00e0
:104bb8000004a0000ce8b700cf013700ce01370091
:104bc80040802000104078000080fb007f006000db
:104bd8000000e00003003200e20f50001c00320029
:104be800c500370040802000204090000080fb0076
:104bf800e10f500012003a00408020001040900061
:104c0800e14f500004003a000ec8bf000004a100a4
:104c18000ee8b700030037000ec8bf000004a0006c
:104c28000ee8b700402021008040eb0001487800e2
:104c38005020210081ccb3000148780003003700e0
:104c48000cc8bf000004a0000ce8b700ae00370095
:104c580010c8bf000080fb00e20f500003003200c4
:104c6800e30f5000120032009f0037004080200000
:104c7800404090000080fb006f0060000000e000f2
:104c880007003a00402021008040eb0001487800ee
:104c98005020210081ccb300014878000300370080
:104ca8000cc8bf000004a0000ce8b7009100370052
:104cb800a04a2000000f780040802000404090006b
:104cc8006f406000204798002e4090000004e000ec
:104cd800790032002e4090000080fb000000400068
:104ce8008000780040802000404090000000fb00d9
:104cf8004f00de0001007000c200dd00002021002e
:104d0800008040002007980040802000404090002c
:104d18000004e00030003d002e4090000080fb00c1
:104d2800000040001e004000100078006400600091
:104d38000000e00024003200408020001040900075
:104d4800e14f500019003a002e4090000080fb000f
:104d5800000040009e0040002e4090000080fb00b4
:104d6800000040001e00400010017800d00f200015
:104d780000006100800878002e009000104090002c
:104d8800804078000124a1002e0090001140980076
:104d98002e00900010409000804078000164a00030
:104da8002e00900011409800430037002e0090001c
:104db80010409000804078000124a0002e00900050
:104dc800114098003c0037000cc8bf000004a00048
:104dd8000ce8b700380037002e4090000080fb0038
:104de800000040001e0040001000780068006000cd
:104df8000000e0002d0032004080200010409000ac
:104e0800e14f500019003a002e4090000080fb004e
:104e1800000040009e0040002e4090000080fb00f3
:104e2800000040001e00400010017800d00f200054
:104e380000006100800878002e009000104090006b
:104e4800804078000124a1002e00900011409800b5
:104e58002e00900010409000804078000164a1006e
:104e68002e00900011409800060037002e00900098
:104e780010409000804078000124a0002e0090008f
:104e8800114098004080200010409000e14f5000f1
:104e980002003a0080c8b3000100370040c8b300e0
:104ea800ae00900090409800030037000cc8bf0087
:104eb8000004a0000ce8b7000cc8bf000080fb008d
:104ec800610060000000e00006003a004020210078
:104ed8008040eb00014878005020210081ccb300cd
:104ee80001487800030037000cc8bf000004a00088
:104ef8000ce8b700040037000cc8bf000004a0008d
:104f08000ce8b700fc003700fb00370040802000a9
:104f1800204090000004e00004003d000cc8bf00e1
:104f28000004a0000ce8b700f30037004080200020
:104f3800904078004014210001487800408020000b
:104f480090409000501421000148780040802000d3
:104f580010009000308a88004080200020009000d7
:104f6800408a88004080200030009000508a8800e5
:104f780020142200908a8800402021008040eb0005
:104f8800014878005020210081ccb3000148780006
:104f9800d90037004080200090407800401421005c
:104fa8000148780040802000904090005014210073
:104fb800014878004080200010009000308a880066
:104fc8004080200020009000408a88004080200017
:104fd80030009000508a88004080200030409000c7
:104fe8000080fb00e20f50000b003200e30f50007e
:104ff80024003200e10f500037003a00a0072a00d1
:10500800608a8800608a8000104078000080fb0079
:10501800708a8800390037004080200020409000c6
:105028000004e00013003a00408020002040900077
:105038000080fb0080004000e0092a00008040005a
:1050480010007800608a8800608a80000080e8008c
:1050580090407800e014210001487800608a8000c0
:105068006300400090407800f01421000148780067
:10507800220037000cc8bf000004a0000ce8b700ed
:105088001e0037004080200020409000e34f500071
:105098000d003e0040802000204090000080fb0072
:1050a80080004000e00d2a000080400010007800d9
:1050b800608a8800608a8000104078000080fb00c9
:1050c800708a88000d0037000cc8bf000004a000db
:1050d8000ce8b70009003700a04080000000e0009d
:1050e80003003200a04080000000010003003700e8
:1050f8000cc8bf000004a0000ce8b7000cc8bf0033
:105108000080fb00610060000000e00079003a00c8
:1051180040982200908a880040802000b0009000cb
:10512800708a8000808f500003003100408020008a
:1051380030009000708a8800710007006e00370008
:1051480030908000d180200091407800014878009c
:105158004020210011c0b3000148780050202100f0
:1051680081ccb300014878006300370040802000fc
:1051780020409000e14f50001a003e0010c0b300dc
:105188001ffc070040802000204090000de8b70079
:105198000dc8bf000080fb000000e00003003a00db
:1051a80020c0b30010e8b7000700370030c0b300d4
:1051b80010e8b700904080000000e00002003200d4
:1051c8009040800000000100402021008040eb005a
:1051d800014878005020210081ccb30001487800b4
:1051e800450037000cc8bf000004a0000ce8b70059
:1051f8004100370010c8bf000080fb00e30f5000db
:1052080013003a0040802000404090000004e00075
:105218000a003a00309080008040eb000148780096
:105228004020210011c0b30001487800502021001f
:1052380081ccb30001487800030037000cc8bf00d8
:105248000004a0000ce8b700000000002a003700a6
:105258000cc8bf000004a0000ce8b7002600370007
:1052680010c8bf000080fb00e30f500019003a008f
:1052780040802000404090000004e00010003a0008
:1052880040802000204090000080fb000000e000eb
:1052980007003a00402021008040eb0001487800d8
:1052a8005020210081ccb300014878000700370066
:1052b8000cc8bf000004a0000ce8b70003003700ca
:1052c8000cc8bf000004a0000ce8b70000000000f4
:1052d800090037000cc8bf000004a0000ce8b700a4
:1052e800050037000cc8bf000004a0000ce8b70098
:1052f80001003700000000000080fa0000000600ee
:105308000200fa00718a8000f0032000808f5000ac
:1053180005003e00708a8000004f78000000eb0016
:10532800708a88000500370000c4b300004f780079
:10533800708a80000004b100708a88000040eb0089
:10534800104798000c003700319080001e409000f4
:105358000080fb0080804000608a80001041780057
:10536800824878000000e800608a88001e409000ab
:105378000040e800104798001e4090009e4f5000e3
:10538800f1ff3900402021001e48780050202100fc
:105398001040780000c0ea0002c4b30082406000f8
:1053a80080c8b30000c07000804078005020210001
:1053b80001487800708a80000000e0000f003a0081
:1053c800808a80000000e00002003200808a8000ad
:1053d800000001004014210080c0eb000148780063
:1053e8005014210080c0eb00014878000000eb0059
:1053f800808a88000000eb00908a88000080fa000c
:10540800000006000200fa000040eb00004f7800a0
:1054180009003700608a8000129080009e80fb009f
:105428008100410091407800014878000000e800c0
:10543800608a88001e4fe800002021001040780094
:105448009e4f5000f3ff3e00718a8000002021002b
:10545800104078000080fb0000805000708a8800af
:10546800708a80000000e0000e0032000020210059
:1054780001c4b300014878001020210010407800d2
:1054880000c0ea0002c4b3008240600080c8b300d4
:1054980000c070008040780010202100014878008a
:1054a8000f003700808a80000000e0000200320010
:1054b800808a8000000001004014210080c0eb00b9
:1054c800014878005014210080c0eb0001487800a2
:1054d8000000eb00808a88000000eb00908b8800b9
:1054e8000080fa00000006000200fa00000f7800b1
:1054f8001e0078004800de001e0f68001e007800bd
:105508004400de001e0f68001e0078004200de0026
:105518001e0f68001e0078000000d1001e0f6800f2
:105528009e007800618060000080fa00000006009c
:105538000800fa00889fbe00000478003107980030
:105548003e00900000e0a000100798009e04900024
:105558001e009000e4ff07004f00dd000900700006
:1055680010079800eaa2a9003e4090000080fb00c6
:1055780040138800000000000013800061006000f4
:105588000000e000fcff320041138000010f7800aa
:105598002e4090000080fb004013880000000000af
:1055a80000138000610060000000e000fcff320092
:1055b80041138000010f7800eaa2a8000000000053
:1055c80000000000000000000000000000000000d3
:1055d80000000000eaa2a9006822ef000000000015
:1055e80000138000610060000000e000fcff320052
:1055f8004013800000407800504798006822ef0070
:105608000000000000138000610060000000e0005e
:10561800fcff3200401380000040780040479800ab
:10562800eaa2a800ae009000010c780008007800fb
:105638004f04be000080fa00000006000400fa00d3
:10564800f0ff2300000f78004080200010409000f9
:105658000080fb00cf80de009200200003002000c5
:10566800820f5000838f5800b9003e00006001008f
:1056780009003700150037002200370030003700d6
:105688003d0037004d0037005d00370086003700c9
:105698008f0037009e003700dce2a800ec02a9006a
:1056a800ec22a9002428ef00100020000041880007
:1056b800402021008040eb00014878005020210064
:1056c80081ccb30001487800a4003700dce2a900cf
:1056d800ec02a800ec22a90010002000204188005c
:1056e8001000200000418800402021008040eb008d
:1056f800014878005020210081ccb300014878008f
:1057080096003700dce2a900ec02a900ec22a80010
:10571800200020002041880010002000004188005f
:10572800db42a800402021008040eb0001487800bf
:105738005020210081ccb300014878008700370051
:10574800dce2a800ec02a900ec22a800300020004e
:1057580020418800100020000041880040202100de
:105768008040eb00014878005020210081ccb30034
:105778000148780079003700309080009216800048
:10578800010021008100610001f0a7008100ea000a
:105798008100ea00cf08de008140780001487800e7
:1057a8004020210011c0b30001487800502021009a
:1057b80081ccb30001487800680037003090800041
:1057c80052168000010021008100610001f0a7004d
:1057d8008100ea008100ea00cf08de0081407800fd
:1057e800014878004020210011c0b300014878002a
:1057f8005020210081ccb3000148780057003700c1
:105808000e80e800418020009100900048ff0700ca
:1058180030908000ae4090000148780030908000c1
:105828000000e800be4090000148780040202100b8
:1058380021c0b300014878002e4090008080fb0012
:105848003e4090000080fb004800dd008080400062
:10585800f0ff230000816000b04721000090b900ec
:10586800c388de004f90de0000805000f0408800c2
:10587800f0408000801f7800400e2a00801f7800ca
:1058880039f30700e48757005020210081ccb3008a
:105898000148780060cb22000000010040d02200bf
:1058a800000001002d00370040802000100090000b
:1058b800b00c8800402021008040eb0001487800af
:1058c8005020210081ccb300014878002300370024
:1058d800b00c80001007980030908000ae40900017
:1058e80001487800309080000000e800be40900039
:1058f800014878004020210021c0b3000148780009
:105908005020210081ccb3000148780013003700f3
:10591800a00c80001007980030908000ae409000e6
:1059280001487800309080000000e800be409000f8
:10593800014878004020210021c0b30001487800c8
:105948005020210081ccb3000148780003003700c3
:105958000cc8bf000004a0000ce8b7000080fa00e3
:10596800000006000200fa00e0408000801f780076
:10597800100f2a00801f7800fbf20700e487570009
:10598800f1408000e0408000808f5000120032001b
:10599800f04080000000e0000f003200e04080008e
:1059a8000000e0000c003200f1408000e040800080
:1059b800008f5000d04080001e004000d04088007a
:1059c800e0408000801f7800f00f2a00801f7800d8
:1059d800e5f20700e4875700f0408000e0408800c7
:1059e800d0408000801f7800f00f2a00801f7800c8
:1059f800ddf20700e48757000080fa000000060087
:105a08000000fa0020418000e10f5000320032000f
:105a1800e10f500003003c000000e00006003200e7
:105a28005d003700e20f50002d003200e30f5000f8
:105a38005700320058003700da02a8000041800001
:105a4800e10f500002003a00c00320001041880016
:105a5800f04080000000e0001d003500104180008b
:105a68008080e800f0408000808f500005003400fe
:105a7800104180008080e900f0408000808f500055
:105a880010003500f1408000104180000080500077
:105a98000000e00003003400da02a900db42a9009c
:105aa8000b003700f140800010418000008050005a
:105ab8000000e00005003d00da02a900db42a80072
:105ac80003003700da02a8000100370000000000d8
:105ad8002028ef0031003700db02a8002f00370034
:105ae800da02a800f1408000d0012000000178000f
:105af800110009008200d8008000fd00fa0f500054
:105b080008003c00f1408000d0012000000178002e
:105b1800110009008200d8008000fd00e20f50004b
:105b280003003c00db42a800da02a9001700370096
:105b3800f1408000500220000001780011000900a7
:105b48008200d8008000fd0080007800200220003c
:105b5800808f500008003c00f14080005002200077
:105b680000017800110009008200d8008000fd00c3
:105b7800e20f500003003c00db42a900da02a90052
:105b880002003700da02a8000400370003003700db
:105b9800db02a80001003700db02a8000080fa0041
:105ba800000006000400fa007b0207005c00070002
:105bb800e8a2a900eaa2a800e882a900ea82a9004e
:105bc800d8a2a900daa2a900d882a800006c2000f7
:105bd800000f78000068200010079800113a800034
:105be800f00b200000816000600420007105200097
:105bf8002374200080497800814978008249780020
:105c08001e009000c002b00091c1b30001487800a6
:105c18009e00780074804000a1c0b300014878005d
:105c28009e0078006a804000b1c0b3000148780047
:105c3800103a8000000178000260a0006004200093
:105c4800710520002374200080497800814978007c
:105c580082497800b0032000101388006422ef0006
:105c68000000280000138800d802a900d942a90022
:105c7800db42a900da02a800e862a900db22a90039
:105c8800113a8000f00b20000081600060042000c1
:105c9800710520002374200080497800814978002c
:105ca800824978009e0078006480400021c1b300da
:105cb80001487800103a8000000178000260a000d6
:105cc80060042000710520002374200080497800ba
:105cd800814978008249780060c02100800c8800e2
:105ce800f0012000900c8800f0e72300a00c880049
:105cf800a00c80004400de00b00c88009821ef0062
:105d080020b22200c04088006df9070000000000a2
:105d180010c8bf00e34f5000fdff3a00ffff3700f7
:105d28000400fa00f0c2a900f2c2a800f0e2a8003c
:105d3800006c2000000f7800006820001007980011
:105d4800113a8000f00b2000008160006004200000
:105d5800710520002374200080497800814978006b
:105d6800824978001e0090004002b000a1c1b30033
:105d7800014878009e0078007580400031c0b3006b
:105d880001487800103a8000000178000260a00005
:105d980060042000710520002374200080497800e9
:105da800814978008249780080002000001188002d
:105db8002002200040118800c08320004041880054
:105dc80000402000504188000000eb00604188003e
:105dd8000000eb00704188000000eb008041880063
:105de8000030200030418800c0c320009041880066
:105df80000402000a04188000000eb00b04188006e
:105e08000000eb00c04188000000eb00d041880092
:105e180023e2a90023a2a8008580a9009580a800f4
:105e28008560a9009560a80021e2a8002342a80087
:105e38000080fa00000006000000fa00d04180004f
:105e48000080fa00000006000000fa00111180002e
:105e580000402000008060000000e00001003a00df
:105e68002342a8000080fa00000006000200fa00a1
:105e7800004f780000000000814180005041800000
:105e8800808f5000fcff3200ff3ffc004141800042
:105e980070418000008040001e48780070418000fa
:105ea8000000e80070418800714180005041800086
:105eb800808f500002003a000000eb00704188001b
:105ec800804180000000e800804188005220ef00f7
:105ed8008141800030418000808f500001003900ee
:105ee8002342a8000080fa00000006000200fa0021
:105ef80000000000d04180000000e000fdff3200fb
:105f0800ff3ffc0091418000b041800000804000cc
:105f1800104f7800b04180000000e800b0418800d0
:105f2800b1418000a0418000808f500002003a00fb
:105f38000000eb00b0418800d04180000000e9007b
:105f4800d04188005220ef001e4078000080fa00ff
:105f5800000006000200fa00000f78000400370075
:105f68001e007800104078001e0fe800bfff0700f1
:105f78001e007800104078000004e000f8ff3a00a6
:105f8800b1ff07000080fa00000006000400fa00d4
:105f9800000f7800110798001e0090000000e00034
:105fa8001a0032001e009000e10f500004003a0071
:105fb8001e0078008040eb0001487800140037008c
:105fc800caff07009e007800804878001e0078000d
:105fd80010407800ed4f5000080032001e0090007d
:105fe800e10f5000050032001e0fe8001e0090006f
:105ff8000000e90010079800f1ff37001e00780044
:106008008040eb00014878000100370000000000e4
:106018000080fa00000006000800fa002007980037
:10602800310798003e0090000000e0006f00320049
:106038003e009000e10f500004003a002e0090004e
:106048008040eb000148780069003700b0c1b30018
:1060580086ff070070c3b30084ff07007aff0700bc
:10606800ae00900011079800be009000010f780064
:1060780003003700000000000100370000000000a6
:106088009aff0700ae009000804878002e0090002c
:1060980010407800ed4f500009003a002e009000a3
:1060a8008040eb0001487800a0c0b3006fff0700f4
:1060b800d0c0b3006dff070063ff07004c00370036
:1060c8002e00900010407800fb4f500010003a005e
:1060d800b0c1b30065ff070080c3b30063ff0700ca
:1060e800b0c1b30061ff0700b0c5b3005fff070090
:1060f800b0c4b3005dff070053ff07009e00900087
:1061080021079800be009000010f78003600370084
:106118002e00900010407800e84f50000500320033
:106128002e00900090407800f0c7b30080cf500058
:1061380014003a00ae0090001e009000808f5000be
:106148000c00360080c0b30048ff070000c2b3004f
:1061580046ff070080c0b30044ff07003aff07006e
:106168002e0090000000e900200798001e0fe800ac
:106178000300370070c0b3003cff070032ff070080
:10618800190037001e007800e10f500004003a00a3
:1061980070c0b30035ff07002bff0700120037005f
:1061a8002e00900010407800ff4f5000b1ff3600dd
:1061b8002e00900090407800e0c7b30080cf5000d8
:1061c800aeff3e002e0090001040780027ff070029
:1061d8001dff07002e0090000000e800200798002f
:1061e8001e0fe900a6ff3700a5ff370000000000da
:1061f8000080fa00000006000800fa001007980066
:1062080021079800320798001e00900060004000a7
:10621800e20f500010003e000000eb00000f780075
:10622800070037002e00900010407800ae00900064
:106238008100e800210798000cff07001e0fe80006
:106248009e0078003e009000808f5000f5ff3900d6
:10625800fdfe070001003700000000003e0090002e
:086268000080fa0000000600ae
:020000040000fa
:10627000240800000200000082000000020000006c
:106280001a0800000a00000080000000c41000008e
:10629000ce0000008000000000120000800000001e
:1062a00080000000000800001a00000080000000cc
:1062b00028080000140800008000000026080000e4
:1062c00002000000800000003c1000008800000078
:1062d00082000000010000000062100063106200f4
:1062e00010621000621062001052100000000000e6
:1062f000000000000000000000000000000000009e
:1063000000000000000000000002080001018a00f7
:10631000108b10008a108a00108a10008a107a00f0
:10632000100000000000000000000000000000005d
:10633000000000000000000000000000000002005b
:1063400008020200b210b30010b21000b210b20086
:1063500010b21000a21000000000000000000000b9
:10636000000000000000000000000000000000002d
:10637000000000003c106400108c100000000000c1
:10638000000000000000000000000000d21100002a
:106390000200000080000000b41100001a0000009c
:1063a00082000000686a6c00747a4c0000000100f2
:1063b000000200000400080000100000000020009f
:1063c0002b2d230030000000d4110000020000003b
:1063d0008200000004000000ce1100000400000054
:1063e00080000000921100002200000082000000e6
:1063f000303132003334350036373800394142000d
:106400004344450046003000313233003435360015
:10641000373839006162630064656600000000007f
:10642000d611000002000000800000000000000003
:020000040000fa
:10643000809fbe003200f8003400f80010002000f9
:10644000a001880000202000900188000200fa00ce
:106450008580a900804180000000e00017003a001c
:106460002342a90016003700ff3ffc004141800095
:106470006041800000804000104f78006041800043
:106480000000e800604188006141800050418000c8
:10649000808f500002003a000000eb00604188004d
:1064a000804180000000e900804188005220ef0018
:1064b0001e80fb0020118800010037000000000052
:1064c0001111800000202000008060000000e0002a
:1064d00003003a00804180000000e000e2ff3a0043
:1064e0000080fa003400f9003200f9004f00be00cd
:1064f00000400600809fbe003200f8003400f80023
:1065000010002000a00188000020200090018800d9
:106510000000fa008560a90014003700ff3ffc006e
:1065200091418000c0418000008040003111800016
:106530008140780001487800c04180000000e800f8
:10654000c0418800c1418000a0418000808f500080
:1065500002003a000000eb00c0418800d0418000fa
:106560000000e800d04188005220ef0010118000a8
:10657000610060000000e00004003200d1418000b2
:10658000a0418000808f5000e4ff3a000080fa00b4
:106590003400f9003200f9004f00be000040060050
:020000040000fa
:1065a0000000fa0000102000203a8800d8a2a800bd
:1065b000d882a800e882a800e8a2a800c9e2a80042
:1065c000e862a800d902a800d962a800d922a800d0
:1065d000d942a800d802a800d822a800d842a80012
:1065e000d862a800c8a2a800c882a800c862a800f3
:1065f000c842a800c822a800c802a800f0032000d2
:1066000010278800e424ef00e624ef00ea24ef00de
:10661000ec24ef00000e2000001988002223ef0078
:1066200000c4200020198800500020004019880074
:1066300021e3a800d8e2a900dce2a900e802a90051
:10664000ec02a900e822a900ec22a900d1e2a800ee
:10665000d182a800c982a8000080fa0000000600cc
:106660000200fa00000f78009e00780041198800af
:106670002023a800000000000019800061006000d5
:106680000000e000fcff3200001880000080fa00eb
:046690000000060000
:020000040000fa
:106694003600f800809fbe00829fbe00849fbe002b
:1066a400869fbe003200f8003400f800100020007d
:1066b400a001880000202000900188000000fa005a
:1066c4003df707000080fa003400f9003200f900b9
:1066d4004f03be004f02be004f01be004f00be007c
:0866e4003600f9000040060039
:020000040000fa
:0866ec000040da000000fe008e
:00000001FF
